:020000040000fa
:080000000002040000000000f2
:020000040000fa
:04000800fe020000f4
:020000040000fa
:04000c0010030000dd
:020000040000fa
:0400100028030000c1
:020000040000fa
:0400140006030000df
:020000040000fa
:0400180018030000c9
:020000040000fa
:04001c0020030000bd
:020000040000fa
:0400200030030000a9
:020000040000fa
:04002400be04000016
:020000040000fa
:04002800be04000012
:020000040000fa
:04002c00be0400000e
:020000040000fa
:04003000be0400000a
:020000040000fa
:04003400be04000006
:020000040000fa
:04003800be04000002
:020000040000fa
:04003c00be040000fe
:020000040000fa
:04004000be040000fa
:020000040000fa
:040044004204000072
:020000040000fa
:04004800be040000f2
:020000040000fa
:04004c00be040000ee
:020000040000fa
:04005000be040000ea
:020000040000fa
:04005400a403000001
:020000040000fa
:040058003803000069
:020000040000fa
:04005c00be040000de
:020000040000fa
:04006000be040000da
:020000040000fa
:04006400be040000d6
:020000040000fa
:04006800be040000d2
:020000040000fa
:04006c00be040000ce
:020000040000fa
:04007000be040000ca
:020000040000fa
:04007400780400000c
:020000040000fa
:04007800be040000c2
:020000040000fa
:04007c00be040000be
:020000040000fa
:04008000be040000ba
:020000040000fa
:04008400be040000b6
:020000040000fa
:04008800be040000b2
:020000040000fa
:04008c00be040000ae
:020000040000fa
:04009000be040000aa
:020000040000fa
:04009400be040000a6
:020000040000fa
:04009800be040000a2
:020000040000fa
:04009c00be0400009e
:020000040000fa
:0400a000be0400009a
:020000040000fa
:0400a400be04000096
:020000040000fa
:0400a800be04000092
:020000040000fa
:0400ac00be0400008e
:020000040000fa
:0400b000be0400008a
:020000040000fa
:0400b400be04000086
:020000040000fa
:0400b800be04000082
:020000040000fa
:0400bc00be0400007e
:020000040000fa
:0400c000be0400007a
:020000040000fa
:0400c400be04000076
:020000040000fa
:0400c800be04000072
:020000040000fa
:0400cc00be0400006e
:020000040000fa
:0400d000be0400006a
:020000040000fa
:0400d400be04000066
:020000040000fa
:0400d800be04000062
:020000040000fa
:0400dc00be0400005e
:020000040000fa
:0400e000be0400005a
:020000040000fa
:0400e400be04000056
:020000040000fa
:0400e800be04000052
:020000040000fa
:0400ec00be0400004e
:020000040000fa
:0400f000be0400004a
:020000040000fa
:0400f400be04000046
:020000040000fa
:0400f800be04000042
:020000040000fa
:0400fc00be0400003e
:020000040000fa
:04010000be04000039
:020000040000fa
:04010400be04000035
:020000040000fa
:04010800be04000031
:020000040000fa
:04010c00be0400002d
:020000040000fa
:04011000be04000029
:020000040000fa
:04011400be04000025
:020000040000fa
:04011800be04000021
:020000040000fa
:04011c00be0400001d
:020000040000fa
:04012000be04000019
:020000040000fa
:04012400be04000015
:020000040000fa
:04012800be04000011
:020000040000fa
:04012c002c0400009f
:020000040000fa
:04013000be04000009
:020000040000fa
:04013400be04000005
:020000040000fa
:04013800be04000001
:020000040000fa
:04013c00be040000fd
:020000040000fa
:04014000be040000f9
:020000040000fa
:04014400be040000f5
:020000040000fa
:04014800be040000f1
:020000040000fa
:04014c00be040000ed
:020000040000fa
:04015000be040000e9
:020000040000fa
:04015400be040000e5
:020000040000fa
:04015800be040000e1
:020000040000fa
:04015c00be040000dd
:020000040000fa
:04016000be040000d9
:020000040000fa
:04016400be040000d5
:020000040000fa
:04016800be040000d1
:020000040000fa
:04016c00be040000cd
:020000040000fa
:04017000be040000c9
:020000040000fa
:04017400be040000c5
:020000040000fa
:04017800be040000c1
:020000040000fa
:04017c00be040000bd
:020000040000fa
:04018000be040000b9
:020000040000fa
:04018400be040000b5
:020000040000fa
:04018800be040000b1
:020000040000fa
:04018c00be040000ad
:020000040000fa
:04019000be040000a9
:020000040000fa
:04019400be040000a5
:020000040000fa
:04019800be040000a1
:020000040000fa
:04019c00be0400009d
:020000040000fa
:0401a000be04000099
:020000040000fa
:0401a400be04000095
:020000040000fa
:0401a800be04000091
:020000040000fa
:0401ac00be0400008d
:020000040000fa
:0401b000be04000089
:020000040000fa
:0401b400be04000085
:020000040000fa
:0401b800be04000081
:020000040000fa
:0401bc00be0400007d
:020000040000fa
:0401c000be04000079
:020000040000fa
:0401c400be04000075
:020000040000fa
:0401c800be04000071
:020000040000fa
:0401cc00be0400006d
:020000040000fa
:0401d000be04000069
:020000040000fa
:0401d400be04000065
:020000040000fa
:0401d800be04000061
:020000040000fa
:0401dc00be0400005d
:020000040000fa
:0401e000be04000059
:020000040000fa
:0401e400be04000055
:020000040000fa
:0401e800be04000051
:020000040000fa
:0401ec00be0400004d
:020000040000fa
:0401f000be04000049
:020000040000fa
:0401f400be04000045
:020000040000fa
:0401f800be04000041
:020000040000fa
:0401fc00be0400003d
:020000040000fa
:04020000be04000038
:020000040000fa
:04020400be04000034
:020000040000fa
:04020800be04000030
:020000040000fa
:04020c00be0400002c
:020000040000fa
:04021000be04000028
:020000040000fa
:04021400be04000024
:020000040000fa
:04021800be04000020
:020000040000fa
:04021c00be0400001c
:020000040000fa
:04022000be04000018
:020000040000fa
:04022400be04000014
:020000040000fa
:04022800be04000010
:020000040000fa
:04022c00be0400000c
:020000040000fa
:04023000be04000008
:020000040000fa
:04023400be04000004
:020000040000fa
:04023800be04000000
:020000040000fa
:04023c00be040000fc
:020000040000fa
:04024000be040000f8
:020000040000fa
:04024400be040000f4
:020000040000fa
:04024800be040000f0
:020000040000fa
:04024c00be040000ec
:020000040000fa
:04025000be040000e8
:020000040000fa
:04025400be040000e4
:020000040000fa
:04025800be040000e0
:020000040000fa
:04025c00be040000dc
:020000040000fa
:04026000be040000d8
:020000040000fa
:04026400be040000d4
:020000040000fa
:04026800be040000d0
:020000040000fa
:04026c00be040000cc
:020000040000fa
:04027000be040000c8
:020000040000fa
:04027400be040000c4
:020000040000fa
:04027800be040000c0
:020000040000fa
:04027c00be040000bc
:020000040000fa
:04028000be040000b8
:020000040000fa
:10040000ef1c21000eff22000e01880000000000fa
:10041000000020000000e000020032000001200087
:100420002002880014000700560107000000e000c9
:1004300003003a0040f221000100200002003700d2
:100440000000200001002000810f70000100320038
:100450000f000700000020000000e0000200320052
:1004600000000200000000005e2102000000000009
:100470000040da000000fe00200020000000e00044
:1004800002003200100020009001880000000600e9
:10049000a1028800800478000000eb001f003700f4
:1004a000e284440054a0b4009905ba00e2844400f8
:1004b00054a0b4009906ba00e284440054a0b400e9
:1004c0000006eb00476fde00fd07b200ae018800ba
:1004d000636ce10003003a000ad801000000eb0061
:1004e0000e003700606ce10008003a00004deb00a0
:1004f0000a05e800020039003420ec000af0a000f0
:100500008b05e900f9ff3e00040037006168e10057
:10051000010032000086eb000b00070019c7ba008b
:100520000e04e0001905ba0003003a000a00e000da
:10053000dbff3a0000000600fe07b200ae028800b2
:100540008a047800f5ff37000cd0a300e20f4d00bd
:100550001c00390089027800354dba000a05e80010
:10056000020039003420ec000af0a0008b05e900fd
:100570000f003200254dba000a05e80002003900dc
:100580003420ec000af0a0008b05e90008003200de
:100590000c00e0000600320015cdba000a05e800a4
:1005a000020039003420ec000af0a0008b05e900bd
:1005b0008984e80054a0b4000b00e000e2ff3a0098
:1005c000000006009902ba00055d78008b05e9007d
:1005d000f7ff3200c82ade00055d78008b05e900d0
:1005e000f3ff32000c00e000f1ff320019ddba0029
:1005f000eeff370000000000000000003600f800a9
:10060000c028a9000000eb00c80f07003600f80062
:10061000ca0f0700c048a90010002000c30f070040
:100620003600f800c068a90020002000bf0f0700b6
:100630003600f800c088a90030002000bb0f07007a
:100640003600f800c0a8a90040002000b70f07003e
:100650003600f800c608a90070002000b30f07009c
:100660003600f800c488a900a0002000af0f0700e2
:10067000809fbe000000fa0021848000108480006a
:10068000808f500010003a0031848000001020005c
:10069000008060000000e0000b003a000000000055
:1006a0001111800000102000008060000000e000b8
:1006b000fbff3200308480000090a000308488006e
:1006c0002188a9001d0037000188a9001400370007
:1006d00020848000104078000080fb0020118800fa
:1006e000208480000000e8002084880021848000ad
:1006f000a00b2100808f500002003a0080082100ea
:1007000020848800308480000080a100308488002c
:100710002184800010848000808f50000600320009
:100720001111800000202000008060000000e00027
:10073000e7ff320001003700000000000080fa00ef
:100740004f00be00004006003600f800809fbe004b
:10075000829fbe00849fbe00869fbe000200fa00fa
:100760000040eb00004f78002a0037003011800075
:1007700000407800004f78009e40780000c8b30029
:1007800080cf500005003a001ed0bf000004e000fa
:1007900002003a0010c0b3001ef0b7001ed0bf0028
:1007a0000004e00003003a0010c0b30078f0b70086
:1007b0001c0037007870ef00f08380009e407800c6
:1007c00001487800f08380000000e800f083880092
:1007d000f1838000c00e2100808f500002003a009b
:1007e000a00b2100f0838800308480000010a1005d
:1007f00030848800f183800000848000808f500066
:1008000004003a00308480000000a000308488009a
:100810000400370010118000610060000000e0005b
:10082000d2ff3a0078d0bf000004e00002003a0096
:100830001e407800190307000168a9000080fa0033
:100840004f03be004f02be004f01be004f00be006e
:100850003600f90000400600801f78000000fa0012
:1008600010118000620060000000e0000100320012
:100870002222a9000828a9000080fa004f00780071
:10088000004006003600f800809fbe00829fbe0038
:10089000849fbe00869fbe000000fa00d0838000c7
:1008a0000000e00002003200d08380000000010060
:1008b000d01c2100104078008040e800d01c2100ae
:1008c00001487800c01c210011c0b3000148780025
:1008d00000e8a9000080fa004f03be004f02be00ee
:1008e0004f01be004f00be003600f9000040060078
:1008f000809fbe000000fa001173800000042000f9
:10090000008060000000e00005003a0034aea9005d
:1009100010c0b30025f0b7002230ef00030037000d
:1009200034aea8002570ef002230ef001073800075
:100930004900de0061406000804078002000200017
:100940008008dd00107080004b00de006140600018
:100950000040400080c04000107080004c00de006d
:100960006140600000c0400024f0b7000268a900a8
:100970000080fa004f00be00004006000040da0090
:100980000000fe000000050003f0a200889fbe00ea
:100990008a9fbe008c1f7800b5000700bc003300a2
:1009a0006450e1004f0032006420e1005200320048
:1009b00003826c0007003b000905d0000306d0004d
:1009c000820f54000c065d00020039000200320064
:1009d00089017800030678008582550004003d00f7
:1009e0000003fd008103fd008502ea008b854200c3
:1009f000840f720002003b0060001000e0801800cd
:100a00006011b8000005eb007a28e1000a00390007
:100a100006007800c75ddd00f707b200878075002b
:100a20002d003700828171000a01780061056000a5
:100a30008180d1000080d3008502e900f9ff3b00ee
:100a4000060440008784480002003b006004140054
:100a5000e0841c000988a300070032008a8171002d
:100a600082817100610164008904d1000884d3008f
:100a70008b05e800170037000978a30013003a003f
:100a80000b00e000130034008b05e900080444006b
:100a900089844c000a4474000978a3000d003a00d0
:100aa0000b00e000070034008b05e9000804440057
:100ab00089844c0001003a000b0020000978a30053
:100ac000f7ff32000001eb00020037008281710065
:100ad0000a0178002b0007000cf0a70001f0a0002d
:100ae000740037006420e10002003a00838f6c003c
:100af000740033000801be000200be006d00370024
:100b000014002000b6003700f4ff2f00b4003700b7
:100b10000001be00410007000470a70003f0a1001f
:100b200003f8a30013003a006509b1001000320079
:100b3000090035006928e1000200350001002800a5
:100b40000000050000004000818048008502e900a7
:100b5000fcff3a0000000600f88f42000500350057
:100b60008100d1000080d3008502e800fcff3a003c
:100b7000000006008000eb00000005006011b800d6
:100b8000b200370081002000618055000b003d005d
:100b90000b00200061fe2f000100e1001d00340069
:100ba00082817100610164008904d1000884d3004e
:100bb0000000e800faff3a007100200061006400c4
:100bc000030070000200600009003200610444006c
:100bd000e0844c000988a500050032008b05e80080
:100be0006808e10002003a008904d1000884d300bb
:100bf000f20f20000258e10005003d00c75ddd0056
:100c0000f907b2008980750008007800000006002e
:100c10000bf827008b00780000000500c70ade00f3
:100c2000f107b200f50fb20008003200e1cf420038
:100c3000020032000170a00024000500810f700046
:100c4000010032000408050044000500810f700017
:100c500002003a00140005008502e900000040008f
:100c600081c04800fcff3b000170a000240005008b
:100c70000004be00e9ff07000003be000405be003b
:100c80000200be00e5ff0700844f7500000006006b
:100c90000200be006450e100050036006420e1005f
:100ca000020036000968a30001003a000800be00f7
:100cb0000160a0004f0678004f05be004f04be0043
:100cc00000000600f0ff2f00f1ff2700f9ff3700ba
:100cd000889fbe008a9fbe008c1f7800e4ff07003b
:100ce000ebff330003866c006450e1002400320007
:100cf0006420e100270032006150e1002200320050
:100d00006120e100210032008b854200eb07b10039
:100d10000134b800003ab8000804420089844a004f
:100d2000013ab8000030b8008880400009014a004c
:100d300004003300000040008180480002014900a7
:100d40008b05e900c909dd00830170000100320054
:100d500013002000c814de004814dd004709de003f
:100d60001200b200c808de000884700085ff07008a
:100d700001f0a1000cf0a70001f0a000cdff3700aa
:100d80006120e100cfff32000801be000200be007a
:100d9000f7ff37006150e100fcff3a00c9ff370060
:100da0006022b800060220000000d0008180d2003e
:100db0000482d2008582d2000000a000020252000c
:100dc00083825a00030031000202420083824a00fb
:100dd0000000a1000603e900f3ff3a00000006004e
:100de000889fbe008a9fbe00841f7800a0ff070076
:100df0004f00780011003300f0ff2f00838f6c004c
:100e000006003b00040565000a00a7000800370043
:100e100009f0a6001000200008003700820f5400df
:100e2000838f5c00030039001000200001003e00a9
:100e30000000200009f0a7000000ea004f05be00f6
:100e40004f04be000000e00000000600889fbe00c6
:100e50008a9fbe000082700004027100048271004b
:100e6000260032000004be000200be006011b8007f
:100e70006b092000950220000182cf000a00390092
:100e80000541b1000082cf00070039000541b100e3
:100e90000982cf00040039000541b1000882cf006b
:100ea000010039000541b100054252001200320034
:100eb0000a003b0082817100610164008100d10061
:100ec0000080d3008984d3000884d3008b05e80018
:100ed0000442e800f7ff3a00070037000804440026
:100ee00089844c0000004800818048008b05e9009f
:100ef0000442e900f9ff3a0022ff07004f05be0057
:100f00004f04be0000000600800178000200370098
:100f1000b15978000201e9000200e000fcff3a004c
:040f200000000600c7
:020000040000fa
:100f24001400fa000000eb00000f78000000eb0052
:100f3400100798000000eb00200798000000eb0069
:100f4400300798000000eb00400798000000eb0019
:100f5400500798000000eb00600798000000eb00c9
:100f6400700798000000eb00000f98000040eb00b1
:100f740020579800970b070056080700210320000c
:100f840000805000000f78001e0078008000780078
:100f940060142100820707001e0078000000e900a9
:100fa4006114210000804000104078000080fb00a4
:100fb4004800dd00800078001e0078000080e90011
:100fc4006214210000004100104078000080fb0002
:100fd40001007000100798001e0078000080e900ee
:100fe4008000780060142100960107002007980013
:100ff400ae0090001e009000808f5000f5003a0073
:10100400601421009040780000c8b30080cf5000e5
:10101400f0003a0080142100104078000080fb00aa
:101024004800dd0080007800901421001040780012
:101034000080fb000100700030079800a01421001c
:10104400104078000080fb004800dd00800078003c
:10105400b0142100104078000080fb0001007000f3
:10106400400798007014210010407800e34f5000ae
:10107400ac003a0022c3b30021c0b30060142100c5
:10108400580107003e009000ef0f50003e003e0064
:101094003e009000500798005e009000e10f400071
:1010a40002003d000000eb00500798005e00900035
:1010b400ef0f500002003400f000200050079800a9
:1010c4004e009000ee0f500002003600f0002000a9
:1010d400400798000000eb00600798000040eb0018
:1010e40020579800220037002e5090008080fb008b
:1010f4005e0090000080400080004000c00e21008f
:101104000080400010007800700798002e50900076
:101114000080fb0081122100008040001040780014
:101124000080fb00000f9800ee0090000e08900075
:1011340000804000600798000e0990007e00900037
:10114400800078002e5090008081fb000e089000f3
:101154008098b900e3014000601421000080410040
:1011640068ff07002e5090000040e80020579800c8
:101174002e5090008080fb004e009000808f500025
:10118400d9ff390047003700be009000300220002c
:10119400808f500043003e003e00900074005000d9
:1011a400500798005e009000e10f400002003d00ef
:1011b4000000eb00500798005e009000ef0f500015
:1011c40002003400f0002000500798004e00900008
:1011d400f30f5000020036008002200060079800e0
:1011e4004e009000f30f5000020036004001200032
:1011f400400798000000eb00600798000040eb00f7
:1012040020579800220037002e5090008080fb0069
:101214005e0090000080400080004000a01021008b
:101224000080400010007800700798002e50900055
:101234000080fb0071132100008040001040780002
:101244000080fb00000f9800ee0090000e08900054
:1012540000804000600798000e0990007e00900016
:10126400800078002e5090008081fb000e089000d2
:101274008098b900e301400060142100008041001f
:1012840020ff07002e5090000040e80020579800ef
:101294002e5090008080fb004e009000808f500004
:1012a400d9ff39006e00900080407800801421003e
:1012b400014878006e0090006300400080007800d0
:1012c40060142100df000700200798006e009000e2
:1012d40063004000ae009000814078006214210059
:1012e40000004100014878006e0090006400400056
:1012f400ae009000c808de0081407800621421002e
:1013040000004100014878006e0090000040780021
:101314006540400080407800601421003a000700d6
:10132400320037007014210010407800e64f50005e
:1013340023003a00be00900030022000808f50004d
:1013440029003e003e0090007400500050079800b1
:101354005e009000e10f400002003d000000eb0041
:10136400500798005e009000ef0f50000200340018
:10137400f0002000500798005e00900071132100d7
:1013840000804000104078000081fb00a11421007f
:101394005e00900080014000a01021000080410008
:1013a40010007800d7fe07001e0078000040780087
:1013b4008040780060142100130007000b00370000
:1013c40022c3b3008040eb006014210085000700b5
:1013d4000600370022c3b3008040eb0060142100f4
:1013e40080000700010037000000000022c3b300a2
:1013f4008040eb00601421007a0007002168a800f7
:101404000080fa00000006000800fa002007980097
:10141400614798000000eb00100798000000eb0003
:10142400000f7800048ea8006e4090000080fb003e
:10143400800078002e0090008e06070010079800a8
:101444006830ef000100370000000000a20607002a
:10145400000f78009e007800708f60001e007800f6
:101464000000e00008003a00408380000000e8002b
:10147400408388004183800000352c00808f500019
:10148400f1ff36000100370000000000048ea900bf
:101494000080fa00000006000200fa00004f780005
:1014a400440a070010c0b30064f0b70066d0bf0060
:1014b400e14f500015003a001e407800e34f500001
:1014c400030032001e407800e64f500004003a004a
:1014d4006770ef0080c0b3003ef0b7000b00370028
:1014e4001e407800f04f500005003a0010c0b300d1
:1014f40067f0b70090c0b3003ef0b70003003700b8
:101504006770ef0050c0b3003ef0b70067d0bf0073
:10151400e14f500007003a0066d0bf00e64f50008c
:1015240004003a006770ef003ed0bf001e40400048
:101534003ef0b70066d0bf000040e80066f0b70098
:1015440061062100914078003ed0bf0080cf50005a
:10155400060039006670ef006770ef00800020001d
:10156400008088001e70ef002168a9000080fa0046
:10157400000006000200fa000040eb00004f780073
:10158400140a070064d0bf00e14f500013003a0072
:1015940080c0b3003ef0b7000040eb00004f78007d
:1015a400090037001e4078000080fb006114210010
:1015b400008040008040eb00014878001e40780025
:1015c4000040e800004f78009e40780010c3b3004c
:1015d40080cf5000f3ff36002168a8000080fa0095
:1015e400000006000600fa00100798004147980022
:1015f400524798000040eb00004f7800ce40900026
:10160400014f7800090037001e4078000080fb007d
:101614009e009000008040008040eb00014878006c
:101624001e4078000040e800004f78009e4078009b
:101634005e40900080cf5000f3ff39000080fa0034
:10164400000006000800fa002007980031079800ff
:101654000000eb00000f78000080eb00000f780022
:1016640080002000100798002e00900010407800a1
:101674008080fb001e00780000806800000f780066
:101684002e0090000000e800200798001e0078005b
:1016940061006000004078000004e00008003200af
:1016a4001e0078000000d100000f78009e00780032
:1016b40010002a0000806800000f78000300370043
:1016c4001e0078000000d100000f78001e0090007a
:1016d4000000e900100798001e0090000000e000e0
:1016e400eaff3a003e0090000000e900300798004d
:1016f4003e0090000000e000d9ff3a001e00780090
:101704000080fa00000006000200fa000040eb002e
:10171400004f78000040eb00004f78001e40780036
:101724000080fb002101210000014000c00e2100c7
:1017340000004100010878001e4078000080fb0092
:10174400811221000080400021c0b30001487800cc
:101754001e4078000040e800004f78001e407800ea
:101764000080fb004100210000014000c00e210068
:1017740000004100010878001e4078000080fb0052
:10178400811221000080400021c0b300014878008c
:101794001e4078000040e800004f78001e407800aa
:1017a4000080fb006101210000014000c00e210007
:1017b40000004100010878001e4078000080fb0012
:1017c400811221000080400021c0b300014878004c
:1017d4001e4078000040e800004f78001e4078006a
:1017e4000080fb008100210000014000c00e2100a8
:1017f40000004100010878001e4078000080fb00d2
:10180400811221000080400021c0b300014878000b
:101814001e4078000040e800004f78001e40780029
:101824000080fb006100210000014000c00e210087
:1018340000004100010878001e4078000080fb0091
:10184400811221000080400021c0b30001487800cb
:101854001e4078000040e800004f78001e407800e9
:101864000080fb00a100210000014000c00e210007
:1018740000004100010878001e4078000080fb0051
:10188400811221000080400021c0b300014878008b
:101894001e4078000040e800004f78001e407800a9
:1018a4000080fb00c100210000014000c00e2100a7
:1018b40000004100010878001e4078000080fb0011
:1018c400811221000080400021c0b300014878004b
:1018d4001e4078000040e800004f78001e40780069
:1018e4000080fb00e100210000014000c00e210047
:1018f40000004100010878001e4078000080fb00d1
:10190400811221000080400021c0b300014878000a
:101914001e4078000040e800004f78000040eb00d3
:10192400004f78001e4078000080fb000101210078
:1019340000014000a01021000000410001087800cf
:101944001e4078000080fb007113210000804000dd
:1019540021c0b300014878001e4078000040e80030
:10196400004f78001e4078000080fb0061032100d6
:1019740000014000a010210000004100010878008f
:101984001e4078000080fb0071132100008040009d
:1019940021c0b300014878001e4078000040e800f0
:1019a400004f78001e4078000080fb008103210076
:1019b40000014000a010210000004100010878004f
:1019c4001e4078000080fb0071132100008040005d
:1019d40021c0b300014878001e4078000040e800b0
:1019e400004f78001e4078000080fb00a103210016
:1019f40000014000a010210000004100010878000f
:101a04001e4078000080fb0071132100008040001c
:101a140021c0b300014878001e4078000040e8006f
:101a2400004f78001e4078000080fb00c1032100b5
:101a340000014000a01021000000410001087800ce
:101a44001e4078000080fb007113210000804000dc
:101a540021c0b300014878001e4078000040e8002f
:101a6400004f78001e4078000080fb0041022100f6
:101a740000014000a010210000004100010878008e
:101a84001e4078000080fb0071132100008040009c
:101a940011c0b300014878001e4078000040e800ff
:101aa400004f78000080fa00000006000000fa00f1
:101ab400889fbe008a9fbe008c9fbe0024d0bf00ba
:101ac4000004e0000f003a00708080000000d100a4
:101ad400d0808800d180800010032000808f5000c7
:101ae40002003e0020032000d0808800d1808000c6
:101af40020992000808f5000020036002099200099
:101b0400d080880024d0bf00e14f500038003a0054
:101b14007180800030062000808f500002003e005b
:101b2400400620007080880071808000007d2000c5
:101b3400808f500002003600007d200070808800f5
:101b44005c8180006d8180003a8180004b8180003f
:101b5400008180008000eb0007fc07000004be0049
:101b6400708080008000eb0003fc07000c03be00c3
:101b74000a02be000801be00f603070020828800a6
:101b8400208280008000eb00229920008289b90025
:101b9400e002b90084017800030141002399200088
:101ba4000300b8000101410082007800f2ff200028
:101bb4000300200079fc070000007800d080880032
:101bc400d180800010032000808f500002003e006e
:101bd40020032000d0808800d1808000209920003c
:101be400808f50000200360020992000d0808800a9
:101bf40024d0bf00e24f500065003a00718080009d
:101c0400b0122000808f500002003e00c01220005d
:101c1400708088007180800080ed2000808f5000eb
:101c24000200360080ed200070808800c0808000b3
:101c34008000eb00d0fb07000004be00b0808000f1
:101c44008000eb00ccfb0700a299290093f123004c
:101c54001efc07000001be000800be0049fb07008f
:101c640018c0b3006011b800a6fb07000000e00034
:101c740001003c000044eb000804e00011003200c5
:101c8400c08080008000eb00bbfb07000004be00a6
:101c9400b08080008000eb00b7fb0700a299290008
:101ca40093f1230009fc07000001be000800be00f8
:101cb40034fb070095fb070000007800a080880033
:101cc400010037001430ef00a1808000f0ff2000f5
:101cd400808f500002003600f0ff2000a0808800b2
:101ce4009c818000ad8180007a8180008b8180009e
:101cf400a08080008000eb009ffb07000004be0072
:101d0400708080008000eb009bfb07000c03be008a
:101d14000a02be000801be008e030700208288006c
:101d2400208280008000eb00229920008289b90083
:101d3400e003b900860178000301410023992000e3
:101d44000300b8000101410082007800f2ff200086
:101d54000300200011fc070000007800d0808800f8
:101d6400d180800010032000808f500002003e00cc
:101d740020032000d0808800d1808000209920009a
:101d8400808f50000200360020992000d080880007
:101d940024d0bf00e34f500073003a0071808000ec
:101da40030062000808f500002003e0040062000d4
:101db400708088007180800080ed2000808f50004a
:101dc4000200360080ed200070808800c080800012
:101dd4008000eb0068fb07000004be00b0808000b8
:101de4008000eb0064fb0700a299290093f1230013
:101df400b6fb07000001be000800be00e1fa0700c0
:101e040018c0b3006011b8003efb07000000e000fa
:101e140001003c000044eb000804e0001100320023
:101e2400c08080008000eb0053fb07000004be006c
:101e3400b08080008000eb004ffb0700a2992900ce
:101e440093f12300a1fb07000001be000800be00bf
:101e5400ccfa07002dfb070000007800a080880062
:101e6400010037001430ef00a1808000f0ff200053
:101e7400808f500002003600f0ff2000a080880010
:101e8400c3818000b2818000018180008083800052
:101e9400d002070020828800208280006101b800ff
:101ea400708080008000eb00809ab900828bb900ba
:101eb40086027800050242000010b80001024200c8
:101ec400840078004409dd004c00de00000071004d
:101ed400cc08de000000780030828800e3818000b6
:101ee400d2818000b18080003082800059020700d6
:101ef4004082880040828000cf80de00229920004a
:101f04008289b900e002b90084017800030141002c
:101f1400239920000300b8000101410082007800e9
:101f2400440bdd004c00de0000007300cc08de0032
:101f340000007800d0808800d18080001003200049
:101f4400808f500002003e0020032000d0808800d3
:101f5400d180800020992000808f5000020036003c
:101f640020992000d0808800d180800025d0bf0037
:101f7400a90107004f06be004f05be004f04be0076
:101f84000080fa00000006003a00fa00889fbe00b4
:101f94008a9fbe008c9fbe000000eb00000f7800fb
:101fa4000000eb00100798000000eb0020079800e9
:101fb4000000eb00300798000000eb004007980099
:101fc4000000eb00500798000000eb006007980049
:101fd4000040eb0040010700000f780050c0b30040
:101fe4003d0107003007980010c0b3003a01070014
:101ff40010079800708380000080ea006101b80037
:10200400108080008000eb00809ab9008402780080
:10201400828ab900848242000010b80081824200a2
:1020240085007800408cde00cf8cde000803780049
:10203400708380006101b8001e0078008000eb000e
:10204400809cb90088027800828ab90084824200a8
:102054000010b8008182420085007800408dde00c7
:10206400cf8dde000a007800000043001080880055
:10207400708380000080ea006101b8004080800025
:102084008000eb00809ab90084027800828ab9004b
:10209400848242000010b8008182420085007800ea
:1020a400408ede00cf8ede000c037800708380004b
:1020b4006101b8003e0090008000eb00809cb900f4
:1020c40088027800828ab900848242000010b80035
:1020d40081824200850078004089de007207980002
:1020e4004f8ade00040f98007e0090000000430039
:1020f40040808800708380000080ea006101b8009d
:10210400208080008000eb00809bb900860278006c
:10211400828ab900848242000010b80081824200a1
:1021240085007800408cde00180f98004f89de008f
:10213400220f98001e0b9000708380006101b8008c
:102144001e0090008000eb00809ab90084027800a1
:10215400828ab900848242000010b8008182420061
:1021640085007800408cde00380f98004f89de002f
:10217400420f98003e089000000043002080880031
:1021840051828000703e2000808f500014003e0079
:10219400108080006101b80060828000718280003c
:1021a40002004000838048006082880071828800b9
:1021b400408080006101b8008082800091828000ac
:1021c4000200400083804800808288009182880059
:1021d400508280000000e80050828800130037001d
:1021e4006082800071828000823e20000300200013
:1021f400eafa070000007800b0808800808280003e
:1022040091828000823e200003002000e3fa070050
:1022140000007800c08088004a30ef004c30ef00a6
:102224004e30ef005030ef005230ef00008280005b
:102234000000e8000082880001828000700c200009
:10224400808f5000720036004030ef0030c0b30081
:10225400a10007002007980070c0b3009e0007008b
:102264005007980080c0b3009b00070060079800e7
:10227400708380000080ea006101b8003080800033
:102284008000eb00809ab90084027800828ab90049
:10229400848242000010b8008182420085007800e8
:1022a400408bde00560f98004f8cde00680f9800bc
:1022b4005e0b9000708380006101b8002e009000d6
:1022c4008000eb00809ab90084027800828ab90009
:1022d400848242000010b8008182420085007800a8
:1022e400408cde00780f98004f89de0002179800ba
:1022f4007e089000000043003080880070838000d6
:102304000080ea006101b800608080008000eb007a
:10231400809ab90084027800828ab90084824200db
:102324000010b8008182420085007800408bde00f6
:10233400161798004f8cde00281798001e13900083
:10234400708380006101b8005e0090008000eb00a3
:10235400809ab900828cb900880278000502420094
:102364000010b80001024200840078004089de00b9
:10237400321798004f8ade00441798003e109000f0
:102384000000430060808800708380000080ea00c1
:102394006101b800708080008000eb00809ab90071
:1023a400828bb90086027800050242000010b80052
:1023b4000102420084007800408cde005817980027
:1023c4004f89de0062179800de129000708380004f
:1023d4006101b8006e0090008000eb00809ab900a3
:1023e400828bb900060242000010b80001024200cc
:1023f40084007800408ade00741798004f8bde005a
:10240400061f98007e1090000080420070808800b3
:10241400108280000000e800108288001182800091
:10242400301f2000808f5000260036004230ef001d
:1024340060c0b30028000700400798007083800044
:102444000080ea006101b800508080008000eb0049
:10245400809ab900828cb900880278000502420093
:102464000010b80001024200840078004089de00b8
:10247400121f98004f8ade00241f98009e1a9000b5
:10248400708380006101b8004e0090008000eb0072
:10249400809ab900828bb900060242000010b8008d
:1024a4000102420084007800408bde00361f980051
:1024b4004f8cde00481f98003e18900000804200b8
:1024c400508088004f06be004f05be004f04be007a
:1024d4000080fa00000006000200fa00004f7800b5
:1024e4001e80fb00401988002023a9000000000082
:1024f40000198000610060000000e000fcff320071
:10250400001880000080fa00000006000000fa00b5
:1025140001eca8000080fa00000006000000fa00a8
:1025240001eca9000080fa00000006000400fa0093
:10253400000f7800110798001e007800e20f500089
:1025440007003200e30f500008003200e10f500092
:102554000a003a009e0090003161880008003700ac
:102564009e00900031628800050037009e009000b4
:102574003163880000000000010037000000000003
:102584000080fa00000006000000fa00f8070700c7
:102594000000d1000081880025d0bf00e14f500029
:1025a40012003a00008180000000e0000f003200b9
:1025b400008180008000eb00f2ff2f000300200068
:1025c40000005100818059004f09de008001eb00ba
:1025d40002004000838048008180d1000080d30045
:1025e400000078000081880003003700008180002b
:1025f4000000d1000081880001818000f0ff2000ec
:10260400808f500002003600f0ff20000081880017
:102614000080fa00000006000600fa002047980037
:10262400210798000000eb00000f78002e40900076
:10263400e14f500013003a00c10721009140780097
:102644002e40900080cf50000a003200b3ff0700f4
:10265400100020005400070000042000000f780040
:102664001e00780080007800200020001c00070075
:10267400a6ff0700ae00900010002000abff07008b
:1026840012003700c1072100914078002e409000cd
:1026940080cf50000a003200a0ff07002000200075
:1026a4004100070000042000000f78001e0078009d
:1026b40080007800100020000900070093ff070045
:1026c400ae0090002000200098ff07002e419000eb
:1026d400c1072100824878000080fa00000006004b
:1026e4000600fa0010079800210798000000eb008c
:1026f400000f7800ae009000003020000100700050
:10270400000f78001e009000e20f50000e0032000f
:10271400e30f500016003200e10f50001f003a0092
:10272400116180001e00780001007000e3c12000e8
:1027340011322400d2bc2a00820978008109780071
:102744001061880016003700116280001e007800b6
:1027540001007000e3c1200011322400d2bc2a0021
:102764008209780081097800106288000c00370023
:10277400116380001e00780001007000e3c1200096
:1027840011322400d2bc2a00820978008109780021
:102794001063880000000000010037000000000002
:1027a4000080fa00000006000200fa00000f780022
:1027b4001e007800e20f50000e003200e30f5000bc
:1027c40016003200e10f50001f003a001161800032
:1027d400f0cf2f0000806000e3c1200011322400fc
:1027e400d2bc2a008209780081097800106188002f
:1027f4001600370011628000f0cf2f0000806000c7
:10280400e3c1200011322400d2bc2a0082097800de
:1028140081097800106288000c0037001163800081
:10282400f0cf2f0000806000e3c1200011322400ab
:10283400d2bc2a00820978008109780010638800dc
:102844000000000001003700000000000080fa00d2
:10285400000006001200fa00889fbe00500798008e
:102864006107980072079800030f98000000eb00be
:10287400000f78000000eb00100798000000eb0048
:10288400200798000000eb00300798000000eb00e0
:1028940040079800de0090006e0090000080500019
:1028a400000f78009e00780010802f00808f500069
:1028b40002003d0010802f00000f78009e00780079
:1028c400f07f2000808f500002003400f07f200051
:1028d400000f780000838000ee009000008050001c
:1028e400300798007e0090006101b8003e0090001f
:1028f400cf80de00809ab900828bb900860278000e
:10290400050242000010b800010242008400780071
:102914004409dd004c04de0008047100cc8cde00a8
:1029240008007800100798000e0890006101b800b4
:102934001e007800cf80de00809ab900828bb90037
:1029440086027800050242000010b800010242002d
:1029540084007800408bde00cf8bde000600780018
:1029640020079800118380001e0090008080500092
:102974002e009000008040001083880011838000a6
:1029840010802f00808f500002003d0010802f0027
:102994001083880011838000f07f2000808f500016
:1029a40002003400f07f200010838800ee009000c5
:1029b4000183880011838000f07f200000804000a4
:1029c400400798004e0090004f04be000080fa00bb
:1029d400000006001200fa00889fbe00500798000d
:1029e4006107980072079800030f98000000eb003d
:1029f400000f78000000eb00100798000000eb00c7
:102a0400200798000000eb00300798000000eb005e
:102a140040079800de0090006e0090000080500097
:102a2400000f78009e00780010802f00808f5000e7
:102a340002003d0010802f00000f78009e007800f7
:102a4400f07f2000808f500002003400f07f2000cf
:102a5400000f7800e0828000ee00900000805000bb
:102a6400300798007e0090006101b8003e0090009d
:102a7400cf80de00809ab900828bb900860278008c
:102a8400050242000010b8000102420084007800f0
:102a94004409dd004c04de0008047100cc8cde0027
:102aa40008007800100798000e0890006101b80033
:102ab4001e007800cf80de00809ab900828bb900b6
:102ac40086027800050242000010b80001024200ac
:102ad40084007800408bde00cf8bde000600780097
:102ae40020079800f18280001e0090008080500032
:102af4002e00900000804000f0828800f182800067
:102b040010802f00808f500002003d0010802f00a5
:102b1400f0828800f1828000f07f2000808f5000d6
:102b240002003400f07f2000f0828800ee00900064
:102b3400e1828800f1828000f07f20000080400064
:102b4400400798004e0090004f04be000080fa0039
:102b5400000006001c00fa00889fbe006007980071
:102b640071079800020f9800130f9800240f980023
:102b7400350f9800460f9800570f9800d0cc2c00c2
:102b8400c1dc230020079800310798002e01900033
:102b9400be0190004e089000de0890004bf807003c
:102ba400400f9800510f98000e0990009e09900064
:102bb4006e009000fe00900072f707004007980036
:102bc400510798006000b800008fbe00a08280000a
:102bd400b18280004e019000de0190006af7070088
:102be400a0828800b18288004e019000de0190002e
:102bf4002e089000be08900034f807000004be00c0
:102c0400a0828000b18280004e099000de0990000d
:102c14002ef807000001be000800be005af70700a6
:102c2400008fbe000e0990009e099000c2828800a9
:102c3400d382880018c0b30002002f00f357240089
:102c44001e0078009e009000aef707000000e00030
:102c540001003c000044eb000804e00004003200e2
:102c640000002f00f1572400008fbe000c00370035
:102c740018c0b3006011b8001e0078009e009000d8
:102c84009ef707000000e000010035000044eb005f
:102c94000804e000020032006000b800008fbe00ab
:102ca4001e0078009e00900098f70700000078004e
:102cb4004f04be000080fa00000006000000fa0085
:102cc40080002000001188002222ef0070092000fb
:102cd400401188002168a8004501070080082100f0
:102ce400208488008008210010848800a00b210023
:102cf40000848800a00b2100f083880030848000c9
:102d04000010a00030848800308480000090a0006f
:102d140030848800308480000080a10030848800e2
:102d2400308480000000a100308488000080fa0014
:102d3400000006000200fa000040eb00004f78009b
:102d440000848000104f7800008480000000e800b8
:102d54000084880001848000c00e2100808f500010
:102d640002003a00a00b2100008488000184800046
:102d7400f0838000808f500003003a00308480008c
:102d84000010a00030848800308480000000a1007e
:102d9400308488001e4078000080fa00000006009d
:102da4000600fa00881f7800100798002107980091
:102db4000000eb00000f7800090037003084800029
:102dc400620060000000e0000a003a001e0090006b
:102dd4001e044000d7ff0700004c78001e0fe800d7
:102de4002e0090009e007800808f5000f3ff390081
:102df40001003700000000001e0078004f04780036
:102e04000080fa00000006000200fa00004f78007b
:102e14002188a900108480001e4878001084800056
:102e24000000e8001084880011848000a00b2100b9
:102e3400808f500002003a0080082100108488002e
:102e4400308480000090a1003084880021848000b8
:102e540010848000808f500003003a00308480008a
:102e64000080a000308488002188a8000080fa0037
:102e7400000006000600fa001007980021079800d9
:102e84000000eb00000f78000a0037003184800056
:102e940000102000008060000000e0000a003a00fa
:102ea4001e0090001e004000104078001e0fe80035
:102eb400d5ff07002e0090009e007800808f500000
:102ec400f2ff390001003700000000001e00780006
:102ed4000080fa00000006000200fa000000eb0087
:102ee400000f780031848000002020000080600002
:102ef4000000e000010032001e40a0003184800088
:102f040000102000008060000000e000010032009a
:102f14001e30a00030848000610060000000e000ea
:102f2400010032001e00a0003084800062006000b6
:102f34000000e000020032001e20a0000100370063
:102f44001e10a0001e0078000080fa000000060099
:102f54000200fa00000f7800008480009e00400008
:102f6400c00e2100808f50000900390000848000c9
:102f74009e004000c00e21000000ea0000804000d6
:102f8400a10b2100008040001040780003003700ae
:102f9400008480001e004000104078000080fa0089
:102fa400000006000800fa00200798003107980086
:102fb4000000eb001007980010c0b300004f780029
:102fc400be00900010032000808f500007003e00d8
:102fd40030848000620060000000e00003003a00da
:102fe4002e0090000000e00003003a000040eb00d7
:102ff400004f78003400370000848000800078009f
:103004003e00900080804000a00b21000000ea00f8
:103014008080400020032000000178001100090096
:103024008280d8008000fd00100798000184800091
:10303400f0838000808f50000a00310001848000fa
:103044003e00900080804000f08380000000e90092
:10305400808f5000150036000040eb00004f7800d0
:103064001200370001848000f0838000808f5000bc
:103074000e0036009e009000a00b210080804000ce
:1030840000848000808f5000080031009e00900072
:10309400a00b210080804000f0838000808f5000ce
:1030a400020039000040eb00004f78001e40780019
:1030b4000004e000040032003e009000a4ff07007a
:1030c400ae009000804878001e4078000080fa002e
:1030d400000006000000fa003084800061006000f7
:1030e4000000e0000f003a0001848000f0838000bb
:1030f400808f500005003600008480008000780036
:10310400f0838000008050000700370000848000b6
:1031140080007800f0838000008050002003b0001d
:10312400010037000000eb000080fa0000000600f8
:103134000000fa003184800000102000008060004c
:103144000000e0000f003a00218480001084800019
:10315400808f5000050036002084800080007800b5
:103164001084800000805000070037002084800015
:103174008000780010848000008050002003b0009c
:10318400010037000000eb000080fa000000060098
:103194000000fa00308480000000d100614060002b
:1031a4000080fb0000f0a7000000ea000000ea0035
:1031b4004f00de00004078000080fa0000000600a6
:1031c4000000fa00308480004800de0061406000a6
:1031d4000080fb0000f0a7000000ea000000ea0005
:1031e4004f00de00004078000080fa000000060076
:1031f4000000fa0021e2a8002342a8000080fa009f
:10320400000006000000fa0021e2a9002342a90000
:103214000080fa00000006000000fa00101180008f
:103224000080fa00000006000000fa00a00320005d
:10323400101388001000200020138800c000200014
:10324400001388000080fa00000006000400fa0061
:10325400000f7800110798000000000000138000a0
:10326400620060000000e000fcff3a001e007800ed
:10327400104078000080fb0040138800000000002c
:103284000113800000022000008060000000e000c4
:10329400fbff3a0040138000804078001e0090003d
:1032a400014878000080fa00000006001800fa00c7
:1032b400100f9800210f9800320f98000000eb00c7
:1032c400000f78000000eb00100798000000eb00ee
:1032d400700798000000eb00000f98001000200019
:1032e400600798001e0890000000e00005003a0006
:1032f4000000eb005007980070004700200798007a
:1033040004003700ee009000510798009e089000da
:10331400210798003e0890000000e00005003a00f4
:103324000000eb00400798006e004700300798004b
:1033340005003700ee00900041079800be08900099
:103344003107980000000000001380006200600054
:103354000000e000fcff3a001d003700001380006d
:10336400620060000000e00009003a002e009000b6
:10337400104078000080fb0040138800ae009000ed
:103384005e00900000804000200798001e0fe800b7
:103394000113800000022000008060000000e000b3
:1033a4000b003a0040138000804078003e009000fb
:1033b40001487800be0090004e009000008040005c
:1033c400300798001e0090000000e80010079800e5
:1033d4002e0890009e007800808f5000dfff390097
:1033e40010003700011380000002200000806000fc
:1033f4000000e0000b003a00401380008040780099
:103404003e00900001487800be0090004e009000fd
:1034140000804000300798001e0090000000e80083
:10342400100798009e0090002e089000808f500096
:10343400ecff39001e0078000080fa00000006004e
:103444000400fa00204798000e80e8008e007800ff
:103454007eff07001e4078000080fa00000006008e
:103464000600fa00000f7800110798002207980060
:103474002e0190009e0090001e0078008bff070034
:103484000080fa00000006000000fa00111380001a
:1034940000402000008060000000e00002003a00cc
:1034a4000000eb0001003700100020000080fa004b
:1034b400000006000000fa00001380000080fa00fb
:1034c400000006000000fa00022cef00042cef00bc
:1034d400062cef000a2cef001a2cef001e2cef0034
:1034e4004020200000618800402020000062880005
:1034f400602cef0000002c00e3c1200011322400f6
:10350400d2bc2a0082097800810978001061880001
:1035140000002c00e3c1200011322400d2bc2a0098
:103524008209780081097800106288000000eb00ad
:10353400e3c1200011322400d2bc2a0082097800a1
:10354400810978001063880030002000e3c1200066
:1035540011322400d2bc2a00820978008109780043
:103564002061880030002000e3c1200011322400d3
:10357400d2bc2a0082097800810978002062880080
:1035840030002000e3c1200011322400d2bc2a0004
:10359400820978008109780020638800204d20008a
:1035a400306188008070200030628800662cef0053
:1035b4000096200040618800009620004062880048
:1035c400682cef00200320005061880020032000b5
:1035d400506288006a2cef0020032000606188009c
:1035e40020032000606288006c2cef00322cef0076
:1035f400522cef00722cef00342cef00542cef000f
:10360400742cef003a2cef005a2cef007a2cef00c8
:103614003c2cef005c2cef007c2cef003e2cef00e8
:103624005e2cef007e2cef00000028000060880074
:103634000080fa00000006000000fa000080fa0092
:10364400000006000000fa00314080000020200045
:10365400008060000000e00002003200f6ff070076
:103664000728a9000080fa00000006000000fa0004
:103674000080fa00000006000000fa0031408000db
:1036840000202000008060000000e0000200320002
:10369400f6ff07000bc8a9000080fa00000006002e
:1036a4000000fa000080fa00000006000000fa00a2
:1036b4003140800000202000008060000000e00015
:1036c40002003200f6ff07000be8a9000080fa00b0
:1036d400000006000000fa000080fa000000060066
:1036e4000000fa00314080000020200000806000cb
:1036f4000000e00002003200f6ff07000c08a900f9
:103704000080fa00000006000000fa00003a800081
:103714000080fa00000006000200fa00faff070029
:10372400000f78001e007800240007000004e00069
:103734000200320000002800710007001e0078001b
:103744002a0007000004e000020032000000240008
:103754006b0007001e007800320007000004e00040
:103764000200320000202000650007001e007800df
:103774003a0007000004e0000200320000082000c4
:103784005f0007001e007800420007000004e0000c
:103794000200320000042000590007001e007800d7
:1037a4004a0007000004e00002003200000120008b
:1037b400530007000080fa00000006000400fa002d
:1037c400100798000040eb00004f78001e009000a6
:1037d4000000e00002003d0010c0b300004f78007c
:1037e4001e4078000080fa00000006000400fa0081
:1037f400100798000040eb00004f78009e009000f6
:1038040000002400008060000000e000020032009c
:1038140010c0b300004f78001e4078000080fa000a
:10382400000006000400fa00100798000040eb00b6
:10383400004f78009e00900000202000008060006f
:103844000000e0000200320010c0b300004f780016
:103854001e4078000080fa00000006000400fa0010
:10386400100798000040eb00004f78009e00900085
:1038740000082000008060000000e0000200320028
:1038840010c0b300004f78001e4078000080fa009a
:10389400000006000400fa00100798000040eb0046
:1038a400004f78009e00900000042000008060001b
:1038b4000000e0000200320010c0b300004f7800a6
:1038c4001e4078000080fa00000006000400fa00a0
:1038d400100798000040eb00004f78001e00900095
:1038e400700060000000e0000200320010c0b3006d
:1038f400004f78001e4078000080fa0000000600a7
:103904000200fa00000f78009e80ea00003a80006e
:1039140000806000003a88000080fa000000060081
:103924000000fa004027ef000080fa0000000600c3
:103934000200fa000000eb00000f780092f9070083
:103944006ad0bf000040e8006af0b7006ad0bf0048
:10395400e94f5000040036006a70ef0000808000d8
:103964000000a000008088006bd0bf000040e80089
:103974006bf0b700b10621009140780030c6b30067
:1039840080cf5000040036006b70ef000080800090
:103994000010a000008088006cd0bf000040e80048
:1039a4006cf0b7006cd0bf00e74f40000400360055
:1039b4006c70ef00008080000020a0000080880070
:1039c40000808000000f78001e007800680060000e
:1039d4000000e000040032001e0078000030a10066
:1039e400000f78004e0007001e0078007000600091
:1039f4000000e000040032001e0078000040a10036
:103a0400000f78004a0007009e00780000022000a2
:103a1400008060000000e000040032001e00780016
:103a24000050a100000f7800440007001e00780039
:103a340061006000004078000004e00004003200ef
:103a44001e0078000000a100000f78001400070099
:103a54001e007800620060000000e00004003200f4
:103a64001e0078000010a100000f78001400070069
:103a74001e007800640060000000e00004003200d2
:103a84001e0078000020a100000f78001900070034
:103a94001e007800008088000080fa000000060004
:103aa4000000fa001181800080252000808f5000e2
:103ab40001003a00fdf707000080fa00000006004c
:103ac4000000fa001181800070252000808f5000d2
:103ad40006003e001181800025d0bf00cefa070009
:103ae400108180000080e800108188000080fa00c6
:103af400000006000000fa006dd0bf000040e8009e
:103b04006df0b7006dd0bf00e44f500002003a00e2
:103b14009dfa07006d70ef000080fa0000000600b7
:103b24000000fa00fef407000080fa00000006001e
:103b34000000fa000080fa00000006000000fa000d
:103b44000080fa00000006000000fa00042eef00d6
:103b5400142eef000008200020718800342eef009e
:103b6400442eef00542eef00642eef0030b82100f5
:103b740000708800e07f200080708800f0d72b0060
:103b840000718800001420008071880000002f005c
:103b9400007288003000200080728800003c200001
:103ba400007388000c2eef001c2eef002c2eef006b
:103bb4003c2eef004c2eef005c2eef006c2eef003d
:103bc4000a2eef001a2eef002a2eef003a2eef00f5
:103bd4004a2eef005a2eef006a2eef00062eef0059
:103be400162eef00262eef00362eef00462eef00a5
:103bf400562eef00662eef00300120007070880012
:103c0400e0102000f07088007000200070718800bf
:103c140000002f007072880000802100407088002e
:103c24000024200040738800113a8000f00b20002b
:103c340000816000600420007105200023742000ce
:103c440080497800814978008249780051348000a5
:103c5400f00f2c00008060000080a0005034880029
:103c64002136800000f82f0080806000800320004f
:103c74000100700020368800e135800000f82f0034
:103c8400808060007007200001007000e03588002b
:103c9400e1358000f00f280080806000008027005c
:103ca40001007000e0358800103a800000017800bf
:103cb4000260a0006004200071052000237420002d
:103cc4008049780081497800824978000080fa00b0
:103cd400000006000000fa000621ef00f0ab22000d
:103ce400600888000002280080088800d0838000d3
:103cf4000000e00002003a0040ec2100250007002b
:103d040000e8a90020e8a800c01c21008040eb00c6
:103d1400014878000080fa00000006000200fa0062
:103d2400000f78009e00780061088800c01c210004
:103d34008040eb00014878000080fa000000060093
:103d44000000fa00600880000080fa00000006000d
:103d54000200fa00000f78009e0078003108880005
:103d6400c01c21008040eb00014878000080fa006c
:103d7400000006000000fa00300880000080fa000d
:103d8400000006000000fa00faf507000080fa00bf
:103d9400000006000200fa00000f780020e8a900e5
:103da4009e007800d183880020e8a8000080fa00f3
:103db400000006000000fa00c01c21008040eb0057
:103dc4000148780020e8a80011e1a8000080fa006a
:103dd400000006000000fa0011e1a9000080fa00ca
:103de400000006000200fa00c01c2100104f7800f9
:103df4001e4078000004e00003003200c01c2100d3
:103e04008040eb00014878001e4078000080fa00f2
:103e1400000006000000fa00d01c210010407800c9
:103e24000080fb000080fa00000006000000fa0099
:103e3400d01c21008040eb00014878000080fa008b
:043e44000000060074
:020000040000fa
:103e4800aa1100002000000080000000721000008d
:103e58000200000082000000ffff00007410000054
:103e68000200000080000000ca11000002000000eb
:103e780080000000761000000200000080000000b2
:103e88007e1000006e000000800000007810000026
:103e98000200000080000000cc11000002000000b9
:103ea800800000007a10000002000000800000007e
:103eb80046110000320000008000000000100000e1
:103ec8002400000080000000241000001c000000f6
:103ed800820000000101660066a63f00cdcccc0040
:103ee8003d000000803fcd00cc4c3d004c04f40068
:103ef80001d00700f4013200000000005410000057
:103f080010000000800000007c100000020000008b
:103f180082000000020000006a1000000400000097
:103f280080000000781100003200000082000000cc
:103f380000aa55000000000000000000000000007a
:103f48000000000000000000000000000000000069
:103f58000000000000000000000000000000000059
:103f68000000000000000000000000000000000049
:103f7800000000006e100000040000008200000035
:103f88001027b000040000004010000014000000da
:103f980080000000ec1000005a00000080000000c3
:103fa800641000000600000080000000000000000f
:020000040000fa
:103fb8000000fa000021ef00d0da20001008880085
:103fc8000000280020088800a01c21008040eb0089
:103fd800014878000080fa00000006000000fa009e
:103fe80000408000680060000000e0000a00320025
:103ff800b01c2100104078008040e800b01c21006f
:1040080001487800a01c210011c0b30001487800c5
:104018000068a90045fe07000080fa0000000600bd
:104028000200fa00000f78009e007800110888004e
:10403800a01c21008040eb00014878000080fa00b5
:10404800000006000000fa00100880000080fa0056
:10405800000006000200fa00000f78009e007800b9
:1040680001088800a01c21008040eb00014878006e
:104078000080fa00000006000000fa000008800036
:104088000080fa00000006000000fa00a01c2100d1
:104098008040eb000148780005e1a8000080fa00a4
:1040a800000006000000fa0005e1a9000080fa00ff
:1040b800000006000200fa00a01c2100104f780042
:1040c8001e4078000004e00003003200a01c21001c
:1040d8008040eb00014878001e4078000080fa001c
:1040e800000006000000fa00b01c21001040780013
:1040f8000080fb000080fa00000006000000fa00c3
:10410800b01c21008040eb00014878000080fa00d4
:10411800000006000000fa0043c7bf008080fb00d3
:10412800800f20000081600080072000a109200086
:1041380033742000804978008149780082497800ea
:10414800103a80004c00de00e7406000103a800022
:104158004800de006740600080cf50001300320046
:1041680042c7bf000081fb006004200071052000e9
:1041780023742000804978008149780082497800ba
:1041880000000000103a8000610060000000e000bc
:10419800fcff3a0000000000113a800000022000f5
:1041a800008060000000e000fbff320000102300e8
:1041b800203a88004827ef004e27ef0040022000f1
:1041c800303a88006027ef006227ef006427ef008d
:1041d8006627ef006a27ef006c27ef003200200007
:1041e80080072000a109200033742000804978004e
:1041f800814978008249780012002000600420007c
:1042080071052000237420008049780081497800d6
:104218008249780000000000103a800061006000c8
:104228000000e000fcff3a0000000000113a8000a6
:1042380000022000008060000000e000fbff320068
:104248000080fa00000006000000fa0001eca80057
:104258000080fa00000006000400fa00000f780051
:10426800110798001e007800e20f50000700320086
:10427800e30f500008003200e10f50000a003a0036
:104288009e00900031618800080037009e00900071
:1042980031628800050037009e0090003163880075
:1042a8000000000001003700000000000080fa0054
:1042b800000006000000fa0039000700a40007000b
:1042c800e1ff07008000eb0010002000e2ff07007c
:1042d8008000eb0020002000dfff070009f5070041
:1042e800048ea90068ff0700810007008800070006
:1042f8001173800000042000008060000000e000ce
:1043080004003a0034aea90010c0b30025f0b7008d
:104318000200370034aea8002570ef00107380004b
:104328004900de00614060008040780020002000e5
:104338008008dd00107080004b00de0061406000e6
:104348000040400080c04000107080004c00de003b
:104358006140600000c0400024f0b7001fff070064
:10436800feff37000200fa00000f780021028000eb
:10437800200f2000008060001e00700020028800ce
:104388000080fa00000006000000fa00c3e8a80058
:1043980000000000000000000080fa000000060095
:1043a8000000fa00e7fd07005aff07002900070090
:1043b8009cfb070040fa07000800070040fc0700c4
:1043c80043fe0700fafe0700efff07000002200087
:1043d800e4ff07000080fa00000006000000fa0071
:1043e80040402800001988002223ef0040002000e8
:1043f800201988002823ef002e23ef003023ef0038
:104408003223ef002623ef00101980004200de005f
:104418007f40600074f0b7000080fa0000000600da
:104428000000fa000080fa00000006000000fa0010
:104438000140800000002200008060000000e000d1
:1044480002003200f6ff070001a8a9000080fa0068
:10445800000006000000fa0001438000f0f82f0079
:10446800008060000040a0000043880031428000c6
:1044780080ff2f00008060000000a000304288000c
:1044880021428000f0ff28000080600000c0a000ea
:104498002042880011428000f0ff28000080600060
:1044a80000c0a000104288000080fa00000006004a
:1044b8000000fa0017ff07000080fa00000006005d
:1044c8000000fa00003a80000080fa0000000600b0
:1044d8000000fa008ffc07000080fa0000000600c8
:1044e8000000fa000dfd07000080fa000000060039
:1044f8000000fa00c3e8a8000080fa0000000600e7
:104508000000fa00c3e8a9000080fa0000000600d5
:104518000000fa002268a8000268a9000080fa00da
:1045280000000600000f78009e0078009183880044
:10453800ffff37000000fa00a01a2100800778006a
:10454800201c2100000188000080fa0000000600fd
:104558000000fa0000002800000e88000000240077
:10456800100e88000080fa00000006000000fa0023
:0c457800600e80000080fa0000000600c9
:020000040000fa
:020000040001f9
:045fe000ceff0000f0
:020000040000fa
:020000040001f9
:045fe400ffff0000bb
:020000040000fa
:020000040001f9
:045fe8007fff000037
:020000040000fa
:020000040001f9
:045fec003dff000075
:020000040000fa
:020000040001f9
:045ff0007bff000033
:020000040000fa
:020000040001f9
:045ff400ffff0000ab
:00000001FF
