:020000040000fa
:080000000002040000000000f2
:020000040000fa
:04000800fe020000f4
:020000040000fa
:04000c0010030000dd
:020000040000fa
:0400100028030000c1
:020000040000fa
:0400140006030000df
:020000040000fa
:0400180018030000c9
:020000040000fa
:04001c0020030000bd
:020000040000fa
:0400200030030000a9
:020000040000fa
:04002400ba0400001a
:020000040000fa
:04002800ba04000016
:020000040000fa
:04002c00ba04000012
:020000040000fa
:04003000ba0400000e
:020000040000fa
:04003400ba0400000a
:020000040000fa
:04003800ba04000006
:020000040000fa
:04003c00ba04000002
:020000040000fa
:04004000ba040000fe
:020000040000fa
:040044004204000072
:020000040000fa
:04004800ba040000f6
:020000040000fa
:04004c00ba040000f2
:020000040000fa
:04005000ba040000ee
:020000040000fa
:04005400a403000001
:020000040000fa
:040058003803000069
:020000040000fa
:04005c00ba040000e2
:020000040000fa
:04006000ba040000de
:020000040000fa
:04006400ba040000da
:020000040000fa
:04006800ba040000d6
:020000040000fa
:04006c00ba040000d2
:020000040000fa
:04007000ba040000ce
:020000040000fa
:04007400780400000c
:020000040000fa
:04007800ba040000c6
:020000040000fa
:04007c00ba040000c2
:020000040000fa
:04008000ba040000be
:020000040000fa
:04008400ba040000ba
:020000040000fa
:04008800ba040000b6
:020000040000fa
:04008c00ba040000b2
:020000040000fa
:04009000ba040000ae
:020000040000fa
:04009400ba040000aa
:020000040000fa
:04009800ba040000a6
:020000040000fa
:04009c00ba040000a2
:020000040000fa
:0400a000ba0400009e
:020000040000fa
:0400a400ba0400009a
:020000040000fa
:0400a800ba04000096
:020000040000fa
:0400ac00ba04000092
:020000040000fa
:0400b000ba0400008e
:020000040000fa
:0400b400ba0400008a
:020000040000fa
:0400b800ba04000086
:020000040000fa
:0400bc00ba04000082
:020000040000fa
:0400c000ba0400007e
:020000040000fa
:0400c400ba0400007a
:020000040000fa
:0400c800ba04000076
:020000040000fa
:0400cc00ba04000072
:020000040000fa
:0400d000ba0400006e
:020000040000fa
:0400d400ba0400006a
:020000040000fa
:0400d800ba04000066
:020000040000fa
:0400dc00ba04000062
:020000040000fa
:0400e000ba0400005e
:020000040000fa
:0400e400ba0400005a
:020000040000fa
:0400e800ba04000056
:020000040000fa
:0400ec00ba04000052
:020000040000fa
:0400f000ba0400004e
:020000040000fa
:0400f400ba0400004a
:020000040000fa
:0400f800ba04000046
:020000040000fa
:0400fc00ba04000042
:020000040000fa
:04010000ba0400003d
:020000040000fa
:04010400ba04000039
:020000040000fa
:04010800ba04000035
:020000040000fa
:04010c00ba04000031
:020000040000fa
:04011000ba0400002d
:020000040000fa
:04011400ba04000029
:020000040000fa
:04011800ba04000025
:020000040000fa
:04011c00ba04000021
:020000040000fa
:04012000ba0400001d
:020000040000fa
:04012400ba04000019
:020000040000fa
:04012800ba04000015
:020000040000fa
:04012c002c0400009f
:020000040000fa
:04013000ba0400000d
:020000040000fa
:04013400ba04000009
:020000040000fa
:04013800ba04000005
:020000040000fa
:04013c00ba04000001
:020000040000fa
:04014000ba040000fd
:020000040000fa
:04014400ba040000f9
:020000040000fa
:04014800ba040000f5
:020000040000fa
:04014c00ba040000f1
:020000040000fa
:04015000ba040000ed
:020000040000fa
:04015400ba040000e9
:020000040000fa
:04015800ba040000e5
:020000040000fa
:04015c00ba040000e1
:020000040000fa
:04016000ba040000dd
:020000040000fa
:04016400ba040000d9
:020000040000fa
:04016800ba040000d5
:020000040000fa
:04016c00ba040000d1
:020000040000fa
:04017000ba040000cd
:020000040000fa
:04017400ba040000c9
:020000040000fa
:04017800ba040000c5
:020000040000fa
:04017c00ba040000c1
:020000040000fa
:04018000ba040000bd
:020000040000fa
:04018400ba040000b9
:020000040000fa
:04018800ba040000b5
:020000040000fa
:04018c00ba040000b1
:020000040000fa
:04019000ba040000ad
:020000040000fa
:04019400ba040000a9
:020000040000fa
:04019800ba040000a5
:020000040000fa
:04019c00ba040000a1
:020000040000fa
:0401a000ba0400009d
:020000040000fa
:0401a400ba04000099
:020000040000fa
:0401a800ba04000095
:020000040000fa
:0401ac00ba04000091
:020000040000fa
:0401b000ba0400008d
:020000040000fa
:0401b400ba04000089
:020000040000fa
:0401b800ba04000085
:020000040000fa
:0401bc00ba04000081
:020000040000fa
:0401c000ba0400007d
:020000040000fa
:0401c400ba04000079
:020000040000fa
:0401c800ba04000075
:020000040000fa
:0401cc00ba04000071
:020000040000fa
:0401d000ba0400006d
:020000040000fa
:0401d400ba04000069
:020000040000fa
:0401d800ba04000065
:020000040000fa
:0401dc00ba04000061
:020000040000fa
:0401e000ba0400005d
:020000040000fa
:0401e400ba04000059
:020000040000fa
:0401e800ba04000055
:020000040000fa
:0401ec00ba04000051
:020000040000fa
:0401f000ba0400004d
:020000040000fa
:0401f400ba04000049
:020000040000fa
:0401f800ba04000045
:020000040000fa
:0401fc00ba04000041
:020000040000fa
:04020000ba0400003c
:020000040000fa
:04020400ba04000038
:020000040000fa
:04020800ba04000034
:020000040000fa
:04020c00ba04000030
:020000040000fa
:04021000ba0400002c
:020000040000fa
:04021400ba04000028
:020000040000fa
:04021800ba04000024
:020000040000fa
:04021c00ba04000020
:020000040000fa
:04022000ba0400001c
:020000040000fa
:04022400ba04000018
:020000040000fa
:04022800ba04000014
:020000040000fa
:04022c00ba04000010
:020000040000fa
:04023000ba0400000c
:020000040000fa
:04023400ba04000008
:020000040000fa
:04023800ba04000004
:020000040000fa
:04023c00ba04000000
:020000040000fa
:04024000ba040000fc
:020000040000fa
:04024400ba040000f8
:020000040000fa
:04024800ba040000f4
:020000040000fa
:04024c00ba040000f0
:020000040000fa
:04025000ba040000ec
:020000040000fa
:04025400ba040000e8
:020000040000fa
:04025800ba040000e4
:020000040000fa
:04025c00ba040000e0
:020000040000fa
:04026000ba040000dc
:020000040000fa
:04026400ba040000d8
:020000040000fa
:04026800ba040000d4
:020000040000fa
:04026c00ba040000d0
:020000040000fa
:04027000ba040000cc
:020000040000fa
:04027400ba040000c8
:020000040000fa
:04027800ba040000c4
:020000040000fa
:04027c00ba040000c0
:020000040000fa
:04028000ba040000bc
:020000040000fa
:100400004f1b21000eff22000e018800000000009b
:10041000000020000000e000020032000001200087
:100420002002880014000700540107000000e000cb
:1004300003003a00e0ec2100010020000200370038
:100440000000200001002000810f70000100320038
:100450000f000700000020000000e0000200320052
:1004600000000200000000004a200200000000001e
:100470000040da000000fe00200020000000e00044
:1004800002003200100020009001880000000600e9
:10049000a1028800800478000000eb001f003700f4
:1004a000e284440054a0b4009905ba00e2844400f8
:1004b00054a0b4009906ba00e284440054a0b400e9
:1004c0000006eb00476fde00fd07b200ae018800ba
:1004d000636ce10003003a000ad801000000eb0061
:1004e0000e003700606ce10008003a00004deb00a0
:1004f0000a05e800020039003420ec000af0a000f0
:100500008b05e900f9ff3e00040037006168e10057
:10051000010032000086eb000b00070019c7ba008b
:100520000e04e0001905ba0003003a000a00e000da
:10053000dbff3a0000000600fe07b200ae028800b2
:100540008a047800f5ff37000cd0a300e20f4d00bd
:100550001c00390089027800354dba000a05e80010
:10056000020039003420ec000af0a0008b05e900fd
:100570000f003200254dba000a05e80002003900dc
:100580003420ec000af0a0008b05e90008003200de
:100590000c00e0000600320015cdba000a05e800a4
:1005a000020039003420ec000af0a0008b05e900bd
:1005b0008984e80054a0b4000b00e000e2ff3a0098
:1005c000000006009902ba00055d78008b05e9007d
:1005d000f7ff3200c82ade00055d78008b05e900d0
:1005e000f3ff32000c00e000f1ff320019ddba0029
:1005f000eeff370000000000000000003600f800a9
:10060000c028a9000000eb003e0f07003600f800ec
:10061000400f0700c048a90010002000390f070054
:100620003600f800c068a90020002000350f070040
:100630003600f800c088a90030002000310f070004
:100640003600f800c0a8a900400020002d0f0700c8
:100650003600f800c608a90070002000290f070026
:100660003600f800c488a900a0002000250f07006c
:10067000809fbe000000fa0051838000408380000c
:10068000808f500010003a0061838000001020002d
:10069000008060000000e0000b003a000000000055
:1006a0001111800000102000008060000000e000b8
:1006b000fbff3200608380000090a0006083880010
:1006c0002188a9001d0037000188a9001400370007
:1006d00050838000104078000080fb0020118800cb
:1006e000508380000000e800508388005183800020
:1006f000000a2100808f500002003a00e00621002d
:1007000050838800608380000080a100608388009f
:100710005183800040838000808f500006003200ab
:100720001111800000202000008060000000e00027
:10073000e7ff320001003700000000000080fa00ef
:100740004f00be00004006003600f800809fbe004b
:10075000829fbe00849fbe00869fbe000200fa00fa
:100760000040eb00004f78002a0037003011800075
:1007700000407800004f78009e40780000c8b30029
:1007800080cf500005003a001ed0bf000004e000fa
:1007900002003a0010c0b3001ef0b7001ed0bf0028
:1007a0000004e00003003a0010c0b3005ef0b700a0
:1007b0001c0037005e70ef00208380009e407800b0
:1007c00001487800208380000000e8002083880032
:1007d00021838000200d2100808f500002003a000c
:1007e000000a210020838800608380000010a1009f
:1007f000608388002183800030838000808f5000d8
:1008000004003a00608380000000a000608388003c
:100810000400370010118000610060000000e0005b
:10082000d2ff3a005ed0bf000004e00002003a00b0
:100830001e407800150307000168a9000080fa0037
:100840004f03be004f02be004f01be004f00be006e
:100850003600f90000400600801f78000000fa0012
:1008600010118000620060000000e0000100320012
:100870002222a9000828a9000080fa004f00780071
:10088000004006003600f800809fbe00829fbe0038
:10089000849fbe00869fbe000000fa000083800097
:1008a0000000e00002003200008380000000010030
:1008b000301b2100104078008040e800301b2100f0
:1008c00001487800201b210011c0b30001487800c6
:1008d00000e8a9000080fa004f03be004f02be00ee
:1008e0004f01be004f00be003600f9000040060078
:1008f000809fbe000000fa001173800000042000f9
:10090000008060000000e00004003a0034aea9005e
:1009100010c0b30037f0b7000200370034aea800b3
:100920003770ef00107380004900de006140600006
:1009300080407800200020008008dd0010708000da
:100940004b00de00614060000040400080c040007d
:10095000107080004c00de006140600000c040006c
:1009600036f0b7000268a9000080fa004f00be0010
:10097000004006000040da000000fe000000050014
:1009800003f0a200889fbe008a9fbe008c1f7800e3
:10099000b3000700ba0033006450e1004f0032009a
:1009a0006420e1005200320003826c0007003b002b
:1009b0000905d0000306d000820f54000c065d002c
:1009c0000200390002003200890178000306780035
:1009d0008582550004003d000003fd008103fd00f9
:1009e0008502ea008b854200840f720002003b0002
:1009f00060001000e08018006011b8000005eb00f6
:100a00007a28e1000a00390006007800c75ddd00a1
:100a1000f707b200878075002d00370082817100d2
:100a20000a017800610560008180d1000080d30058
:100a30008502e900f9ff3b00060440008784480076
:100a400002003b0060041400e0841c000988a3003d
:100a5000070032008a8171008281710061016400a7
:100a60008904d1000884d3008b05e8001700370003
:100a70000978a30013003a000b00e00013003400d3
:100a80008b05e9000804440089844c000a44740082
:100a90000978a3000d003a000b00e00007003400c5
:100aa0008b05e9000804440089844c0001003a00e9
:100ab0000b0020000978a300f7ff32000001eb00d3
:100ac00002003700828171000a01780029000700c6
:100ad0000cf0a70001f0a000720037006420e100d4
:100ae00002003a00838f6c00720033000801be00e0
:100af0000200be006b003700f4ff2f00b400370087
:100b00000001be00410007000470a70003f0a1002f
:100b100003f8a30013003a006509b1001000320089
:100b2000090035006928e1000200350001002800b5
:100b30000000050000004000818048008502e900b7
:100b4000fcff3a0000000600f88f42000500350067
:100b50008100d1000080d3008502e800fcff3a004c
:100b6000000006008000eb00000005006011b800e6
:100b7000b200370081002000618055000b003d006d
:100b80000b00200061fe2f000100e1001d00340079
:100b900082817100610164008904d1000884d3005e
:100ba0000000e800faff3a007100200061006400d4
:100bb000030070000200600009003200610444007c
:100bc000e0844c000988a500050032008b05e80090
:100bd0006808e10002003a008904d1000884d300cb
:100be000f20f20000258e10005003d00c75ddd0066
:100bf000f907b2008980750008007800000006003f
:100c00000bf827008b00780000000500c70ade0003
:100c1000f107b200f50fb20008003200e1cf420048
:100c2000020032000170a00024000500810f700056
:100c3000010032000408050044000500810f700027
:100c400002003a00140005008502e900000040009f
:100c500081c04800fcff3b000170a000240005009b
:100c60000004be00e9ff07000003be000405be004b
:100c70000200be00e5ff0700844f7500000006007b
:100c80000200be006450e100050036006420e1006f
:100c9000020036000968a30001003a000800be0007
:100ca0000160a0004f0678004f05be004f04be0053
:100cb00000000600f0ff2f00f1ff2700f9ff3700ca
:100cc000889fbe008a9fbe008c1f7800e4ff07004b
:100cd000ebff330003866c006450e1002400320017
:100ce0006420e100270032006150e1002200320060
:100cf0006120e100210032008b854200eb07b1004a
:100d00000134b800003ab8000804420089844a005f
:100d1000013ab8000030b8008880400009014a005c
:100d200004003300000040008180480002014900b7
:100d30008b05e900c909dd00830170000100320064
:100d400013002000c814de004814dd004709de004f
:100d50001200b200c808de000884700085ff07009a
:100d600001f0a1000cf0a70001f0a000cdff3700ba
:100d70006120e100cfff32000801be000200be008a
:100d8000f7ff37006150e100fcff3a00c9ff370070
:100d90006022b800060220000000d0008180d2004e
:100da0000482d2008582d2000000a000020252001c
:100db00083825a00030031000202420083824a000b
:100dc0000000a1000603e900f3ff3a00000006005e
:100dd000889fbe008a9fbe00841f7800a0ff070086
:100de0004f00780011003300f0ff2f00838f6c005c
:100df00006003b00040565000a00a7000800370054
:100e000009f0a6001000200008003700820f5400ef
:100e1000838f5c00030039001000200001003e00b9
:100e20000000200009f0a7000000ea004f05be0006
:100e30004f04be000000e00000000600889fbe00d6
:100e40008a9fbe000082700004027100048271005b
:100e5000260032000004be000200be006011b8008f
:100e60006b092000950220000182cf000a003900a2
:100e70000541b1000082cf00070039000541b100f3
:100e80000982cf00040039000541b1000882cf007b
:100e9000010039000541b100054252001200320044
:100ea0000a003b0082817100610164008100d10071
:100eb0000080d3008984d3000884d3008b05e80028
:100ec0000442e800f7ff3a00070037000804440036
:100ed00089844c0000004800818048008b05e900af
:100ee0000442e900f9ff3a0022ff07004f05be0067
:100ef0004f04be00000006008001780002003700a9
:100f0000b15978000201e9000200e000fcff3a005c
:040f100000000600d7
:020000040000fa
:100f14001400fa000000eb00000f78000000eb0062
:100f2400100798000000eb00200798000000eb0079
:100f3400300798000000eb00400798000000eb0029
:100f4400500798000000eb00600798000000eb00d9
:100f5400700798000000eb00000f98000040eb00c1
:100f640020579800170b0700e4070700210320000f
:100f740000805000000f78001e0078008000780088
:100f8400c0122100100707001e0078000000e900cd
:100f9400c112210000804000104078000080fb0056
:100fa4004800dd00800078001e0078000080e90021
:100fb400c212210000004100104078000080fb00b4
:100fc40001007000100798001e0078000080e900fe
:100fd40080007800c01221009601070020079800c5
:100fe400ae0090001e009000808f5000f5003a0083
:100ff400c01221009040780000c8b30080cf500098
:10100400f0003a00e0122100104078000080fb005c
:101014004800dd0080007800f012210010407800c4
:101024000080fb00010070003007980000132100cd
:10103400104078000080fb004800dd00800078004c
:1010440010132100104078000080fb0001007000a4
:1010540040079800d012210010407800e34f500060
:10106400ac003a0022c3b30021c0b300c012210077
:10107400580107003e009000ef0f50003e003e0074
:101084003e009000500798005e009000e10f400081
:1010940002003d000000eb00500798005e00900045
:1010a400ef0f500002003400f000200050079800b9
:1010b4004e009000ee0f500002003600f0002000b9
:1010c400400798000000eb00600798000040eb0028
:1010d40020579800220037002e5090008080fb009b
:1010e4005e0090000080400080004000200d210040
:1010f4000080400010007800700798002e50900087
:101104000080fb00e11021000080400010407800c6
:101114000080fb00000f9800ee0090000e08900085
:1011240000804000600798000e0990007e00900047
:10113400800078002e5090008081fb000e08900003
:101144008098b900e3014000c012210000804100f2
:1011540068ff07002e5090000040e80020579800d8
:101164002e5090008080fb004e009000808f500035
:10117400d9ff390047003700be009000300220003c
:10118400808f500043003e003e00900074005000e9
:10119400500798005e009000e10f400002003d00ff
:1011a4000000eb00500798005e009000ef0f500025
:1011b40002003400f0002000500798004e00900018
:1011c400f30f5000020036008002200060079800f0
:1011d4004e009000f30f5000020036004001200042
:1011e400400798000000eb00600798000040eb0007
:1011f40020579800220037002e5090008080fb007a
:101204005e0090000080400080004000000f21003c
:101214000080400010007800700798002e50900065
:101224000080fb00d11121000080400010407800b4
:101234000080fb00000f9800ee0090000e08900064
:1012440000804000600798000e0990007e00900026
:10125400800078002e5090008081fb000e089000e2
:101264008098b900e3014000c012210000804100d1
:1012740020ff07002e5090000040e80020579800ff
:101284002e5090008080fb004e009000808f500014
:10129400d9ff39006e00900080407800e0122100f0
:1012a400014878006e0090006300400080007800e0
:1012b400c0122100df000700200798006e00900094
:1012c40063004000ae00900081407800c21221000b
:1012d40000004100014878006e0090006400400066
:1012e400ae009000c808de0081407800c2122100e0
:1012f40000004100014878006e0090000040780032
:101304006540400080407800c01221003a00070088
:1013140032003700d012210010407800e64f500010
:1013240023003a00be00900030022000808f50005d
:1013340029003e003e0090007400500050079800c1
:101344005e009000e10f400002003d000000eb0051
:10135400500798005e009000ef0f50000200340028
:10136400f0002000500798005e009000d111210089
:1013740000804000104078000081fb000113210030
:101384005e00900080014000000f210000804100b9
:1013940010007800d7fe07001e0078000040780097
:1013a40080407800c0122100130007000b003700b2
:1013b40022c3b3008040eb00c01221008500070067
:1013c4000600370022c3b3008040eb00c0122100a6
:1013d40080000700010037000000000022c3b300b2
:1013e4008040eb00c01221007a0007002168a800a9
:1013f4000080fa00000006000800fa0020079800a8
:10140400614798000000eb00100798000000eb0013
:10141400000f7800048ea8006e4090000080fb004e
:10142400800078002e0090001c060700100798002a
:101434004e30ef00010037000000000030060700c6
:10144400000f78009e007800708f60001e00780006
:101454000000e00008003a00708280000000e8000c
:10146400708288007182800000352c00808f5000cb
:10147400f1ff36000100370000000000048ea900cf
:101484000080fa00000006000200fa00004f780015
:10149400c409070010c0b3004af0b7004cd0bf0025
:1014a400e14f500015003a001e407800e34f500011
:1014b400030032001e407800e64f500004003a005a
:1014c4004d70ef0080c0b30040f0b7000b00370050
:1014d4001e407800f04f500005003a0010c0b300e1
:1014e4004df0b70090c0b30040f0b70003003700e0
:1014f4004d70ef0050c0b30040f0b7004dd0bf00b6
:10150400e14f500007003a004cd0bf00e64f5000b6
:1015140004003a004d70ef0040d0bf001e40400070
:1015240040f0b7004cd0bf000040e8004cf0b700da
:10153400c10421009140780040d0bf0080cf50000a
:10154400060039004c70ef004d70ef008000200061
:10155400008088001e70ef002168a9000080fa0056
:10156400000006000200fa000040eb00004f780083
:10157400940907004ad0bf00e14f500013003a001d
:1015840080c0b30040f0b7000040eb00004f78008b
:10159400090037001e4078000080fb00c1122100c2
:1015a400008040008040eb00014878001e40780035
:1015b4000040e800004f78009e40780010c3b3005c
:1015c40080cf5000f3ff36002168a8000080fa00a5
:1015d400000006000600fa00100798004147980032
:1015e400524798000040eb00004f7800ce40900036
:1015f400014f7800090037001e4078000080fb008e
:101604009e009000008040008040eb00014878007c
:101614001e4078000040e800004f78009e407800ab
:101624005e40900080cf5000f3ff39000080fa0044
:10163400000006000800fa0020079800310798000f
:101644000000eb00000f78000080eb00000f780032
:1016540080002000100798002e00900010407800b1
:101664008080fb001e00780000806800000f780076
:101674002e0090000000e800200798001e0078006b
:1016840061006000004078000004e00008003200bf
:101694001e0078000000d100000f78009e00780042
:1016a40010002a0000806800000f78000300370053
:1016b4001e0078000000d100000f78001e0090008a
:1016c4000000e900100798001e0090000000e000f0
:1016d400eaff3a003e0090000000e900300798005d
:1016e4003e0090000000e000d9ff3a001e007800a0
:1016f4000080fa00000006000200fa000040eb003f
:10170400004f78000040eb00004f78001e40780046
:101714000080fb002101210000014000200d210078
:1017240000004100010878001e4078000080fb00a2
:10173400e11021000080400021c0b300014878007e
:101744001e4078000040e800004f78001e407800fa
:101754000080fb004100210000014000200d210019
:1017640000004100010878001e4078000080fb0062
:10177400e11021000080400021c0b300014878003e
:101784001e4078000040e800004f78001e407800ba
:101794000080fb006101210000014000200d2100b8
:1017a40000004100010878001e4078000080fb0022
:1017b400e11021000080400021c0b30001487800fe
:1017c4001e4078000040e800004f78001e4078007a
:1017d4000080fb008100210000014000200d210059
:1017e40000004100010878001e4078000080fb00e2
:1017f400e11021000080400021c0b30001487800be
:101804001e4078000040e800004f78001e40780039
:101814000080fb006100210000014000200d210038
:1018240000004100010878001e4078000080fb00a1
:10183400e11021000080400021c0b300014878007d
:101844001e4078000040e800004f78001e407800f9
:101854000080fb00a100210000014000200d2100b8
:1018640000004100010878001e4078000080fb0061
:10187400e11021000080400021c0b300014878003d
:101884001e4078000040e800004f78001e407800b9
:101894000080fb00c100210000014000200d210058
:1018a40000004100010878001e4078000080fb0021
:1018b400e11021000080400021c0b30001487800fd
:1018c4001e4078000040e800004f78001e40780079
:1018d4000080fb00e100210000014000200d2100f8
:1018e40000004100010878001e4078000080fb00e1
:1018f400e11021000080400021c0b30001487800bd
:101904001e4078000040e800004f78000040eb00e3
:10191400004f78001e4078000080fb000101210088
:1019240000014000000f2100000041000108780080
:101934001e4078000080fb00d1112100008040008f
:1019440021c0b300014878001e4078000040e80040
:10195400004f78001e4078000080fb0081032100c6
:1019640000014000000f2100000041000108780040
:101974001e4078000080fb00d1112100008040004f
:1019840021c0b300014878001e4078000040e80000
:10199400004f78001e4078000080fb00a103210066
:1019a40000014000000f2100000041000108780000
:1019b4001e4078000080fb00d1112100008040000f
:1019c40021c0b300014878001e4078000040e800c0
:1019d400004f78001e4078000080fb00c103210006
:1019e40000014000000f21000000410001087800c0
:1019f4001e4078000080fb00d111210000804000cf
:101a040021c0b300014878001e4078000040e8007f
:101a1400004f78001e4078000080fb00e1032100a5
:101a240000014000000f210000004100010878007f
:101a34001e4078000080fb00d1112100008040008e
:101a440021c0b300014878001e4078000040e8003f
:101a5400004f78001e4078000080fb0061032100e5
:101a640000014000000f210000004100010878003f
:101a74001e4078000080fb00d1112100008040004e
:101a840011c0b300014878001e4078000040e8000f
:101a9400004f78000080fa00000006000000fa0001
:101aa400889fbe0036d0bf000004e0000f003a005b
:101ab400708080000000d100d0808800d180800038
:101ac40010032000808f500002003e0020032000fd
:101ad400d0808800d180800020992000808f500021
:101ae4000200360020992000d080880036d0bf0044
:101af400e14f50002e003a0071808000b0122000a7
:101b0400808f500002003e00c012200070808800c8
:101b14007180800080ed2000808f5000020036002c
:101b240080ed200070808800d3818000c281800015
:101b340001818000708080008a0307003081880062
:101b4400308180008000eb00229920008289b90056
:101b5400e002b900840178000301410023992000c8
:101b64000300b8000101410082007800f2ff200068
:101b74000300200085fc070000007800d080880066
:101b8400d180800010032000808f500002003e00ae
:101b940020032000d0808800d1808000209920007c
:101ba400808f50000200360020992000d0808800e9
:101bb40036d0bf00e24f50005b003a0071808000d5
:101bc400b0122000808f500002003e00c01220009e
:101bd400708088007180800080ed2000808f50002c
:101be4000200360080ed200070808800c0808000f4
:101bf4008000eb00dcfb07000004be00b080800026
:101c04008000eb00d8fb0700a299290093f1230080
:101c14002afc07000001be000800be0057fb0700b5
:101c240018c0b3006011b800b2fb07000000e00068
:101c340001003c000044eb000804e0001100320005
:101c4400c08080008000eb00c7fb07000004be00da
:101c5400b08080008000eb00c3fb0700a29929003c
:101c640093f1230015fc07000001be000800be002c
:101c740042fb0700a1fb070000007800a080880059
:101c8400010037001430ef00a1808000f0ff200035
:101c9400808f500002003600f0ff2000a0808800f2
:101ca400d3818000c2818000a18080007080800088
:101cb4002c03070030818800308180008000eb0015
:101cc400229920008289b900e003b90086017800d6
:101cd40003014100239920000300b80001014100e1
:101ce40082007800f2ff20000300200027fc070098
:101cf40000007800d0808800d1808000100320008c
:101d0400808f500002003e0020032000d080880015
:101d1400d180800020992000808f5000020036007e
:101d240020992000d080880036d0bf00e34f5000b7
:101d340073003a007180800030062000808f5000cc
:101d440002003e0040062000708088007180800000
:101d540080ed2000808f50000200360080ed2000ce
:101d640070808800c08080008000eb007efb07004c
:101d74000004be00b08080008000eb007afb070006
:101d8400a299290093f12300ccfb07000001be00b7
:101d94000800be00f9fa070018c0b3006011b800cb
:101da40054fb07000000e00001003c000044eb008d
:101db4000804e00011003200c08080008000eb00c5
:101dc40069fb07000004be00b08080008000eb00c7
:101dd40065fb0700a299290093f12300b7fb0700d4
:101de4000001be000800be00e4fa070043fb070040
:101df40000007800a0808800010037001430ef0054
:101e0400a1808000f0ff2000808f50000200360087
:101e1400f0ff2000a0808800d3818000c281800070
:101e240001818000b0828000ce02070030818800ea
:101e3400308180006101b800708080008000eb0078
:101e4400809ab900828bb9008602780005024200ac
:101e54000010b80001024200840078004409dd004b
:101e64004c00de0000007100cc08de0000007800a9
:101e740040818800f3818000e2818000b18080008d
:101e84004081800057020700508188005081800003
:101e9400cf80de00229920008289b900e002b900d7
:101ea4008401780003014100239920000300b80055
:101eb4000101410082007800440bdd004c00de008b
:101ec40000007300cc08de0000007800d080880099
:101ed400d180800010032000808f500002003e005b
:101ee40020032000d0808800d18080002099200029
:101ef400808f50000200360020992000d080880096
:101f0400d180800037d0bf00a70107004f04be0076
:101f14000080fa00000006003a00fa00889fbe0024
:101f24008a9fbe008c9fbe000000eb00000f78006b
:101f34000000eb00100798000000eb002007980059
:101f44000000eb00300798000000eb004007980009
:101f54000000eb00500798000000eb0060079800b9
:101f64000040eb0040010700000f780050c0b300b0
:101f74003d0107003007980010c0b3003a01070084
:101f840010079800a08280000080ea006101b80078
:101f9400108080008000eb00809ab90084027800f1
:101fa400828ab900848242000010b8008182420013
:101fb40085007800408cde00cf8cde0008037800ba
:101fc400a08280006101b8001e0078008000eb0050
:101fd400809cb90088027800828ab9008482420019
:101fe4000010b8008182420085007800408dde0038
:101ff400cf8dde000a0078000000430010808800c6
:10200400a08280000080ea006101b8004080800066
:102014008000eb00809ab90084027800828ab900bb
:10202400848242000010b80081824200850078005a
:10203400408ede00cf8ede000c037800a08280008c
:102044006101b8003e0090008000eb00809cb90064
:1020540088027800828ab900848242000010b800a5
:1020640081824200850078004089de007207980072
:102074004f8ade00040f98007e00900000004300a9
:1020840040808800a08280000080ea006101b800de
:10209400208080008000eb00809bb90086027800dd
:1020a400828ab900848242000010b8008182420012
:1020b40085007800408cde00180f98004f89de0000
:1020c400220f98001e0b9000a08280006101b800ce
:1020d4001e0090008000eb00809ab9008402780012
:1020e400828ab900848242000010b80081824200d2
:1020f40085007800408cde00380f98004f89de00a0
:10210400420f98003e0890000000430020808800a1
:1021140061818000703e2000808f500014003e00da
:10212400108080006101b80070818000818180008e
:10213400020040008380480070818800818188000b
:10214400408080006101b80090818000a1818000fe
:10215400020040008380480090818800a1818800ab
:10216400608180000000e80060818800130037006f
:102174007081800081818000823e20000300200065
:1021840002fb070000007800b08088009081800086
:10219400a1818000823e200003002000fbfa07009a
:1021a40000007800c08088002c30ef002e30ef0053
:1021b4003030ef003230ef003430ef001081800017
:1021c4000000e8001081880011818000700c20005c
:1021d400808f5000720036002230ef0030c0b30010
:1021e400a10007002007980070c0b3009e000700fc
:1021f4005007980080c0b3009b0007006007980058
:10220400a08280000080ea006101b8003080800074
:102214008000eb00809ab90084027800828ab900b9
:10222400848242000010b800818242008500780058
:10223400408bde00560f98004f8cde00680f98002c
:102244005e0b9000a08280006101b8002e00900017
:102254008000eb00809ab90084027800828ab90079
:10226400848242000010b800818242008500780018
:10227400408cde00780f98004f89de00021798002a
:102284007e0890000000430030808800a082800017
:102294000080ea006101b800608080008000eb00eb
:1022a400809ab90084027800828ab900848242004c
:1022b4000010b8008182420085007800408bde0067
:1022c400161798004f8cde00281798001e139000f4
:1022d400a08280006101b8005e0090008000eb00e5
:1022e400809ab900828cb900880278000502420005
:1022f4000010b80001024200840078004089de002a
:10230400321798004f8ade00441798003e10900060
:102314000000430060808800a08280000080ea0002
:102324006101b800708080008000eb00809ab900e1
:10233400828bb90086027800050242000010b800c2
:102344000102420084007800408cde005817980097
:102354004f89de0062179800de129000a082800090
:102364006101b8006e0090008000eb00809ab90013
:10237400828bb900060242000010b800010242003c
:1023840084007800408ade00741798004f8bde00ca
:10239400061f98007e109000008042007080880024
:1023a400208180000000e8002081880021818000d5
:1023b400301f2000808f5000260036002430ef00ac
:1023c40060c0b3002800070040079800a082800086
:1023d4000080ea006101b800508080008000eb00ba
:1023e400809ab900828cb900880278000502420004
:1023f4000010b80001024200840078004089de0029
:10240400121f98004f8ade00241f98009e1a900025
:10241400a08280006101b8004e0090008000eb00b3
:10242400809ab900828bb900060242000010b800fd
:102434000102420084007800408bde00361f9800c1
:102444004f8cde00481f98003e1890000080420028
:10245400508088004f06be004f05be004f04be00ea
:102464000080fa00000006000200fa00004f780025
:102474001e80fb00401988002023a90000000000f2
:1024840000198000610060000000e000fcff3200e1
:10249400001880000080fa00000006000000fa0026
:1024a40001eca8000080fa00000006000000fa0019
:1024b40001eca9000080fa00000006000400fa0004
:1024c400000f7800110798001e007800e20f5000fa
:1024d40007003200e30f500008003200e10f500003
:1024e4000a003a009e00900031618800080037001d
:1024f4009e00900031628800050037009e00900025
:102504003163880000000000010037000000000073
:102514000080fa00000006000000fa008a070700a5
:102524000000d1000081880037d0bf00e14f500087
:1025340012003a00008180000000e0000f00320029
:10254400008180008000eb00f2ff2f0003002000d8
:1025540000005100818059004f09de008001eb002a
:1025640002004000838048008180d1000080d300b5
:10257400000078000081880003003700008180009b
:102584000000d1000081880001818000f0ff20005c
:10259400808f500002003600f0ff20000081880088
:1025a4000080fa00000006000600fa0020479800a8
:1025b400210798000000eb00000f78002e409000e7
:1025c400e14f500013003a002106210091407800a9
:1025d4002e40900080cf50000a003200b3ff070065
:1025e400100020005400070000042000000f7800b1
:1025f4001e00780080007800200020001c000700e6
:10260400a6ff0700ae00900010002000abff0700fb
:102614001200370021062100914078002e409000de
:1026240080cf50000a003200a0ff070020002000e5
:102634004100070000042000000f78001e0078000d
:1026440080007800100020000900070093ff0700b5
:10265400ae0090002000200098ff07002e4190005b
:1026640021062100824878000080fa00000006005c
:102674000600fa0010079800210798000000eb00fc
:10268400000f7800ae0090000030200001007000c0
:10269400000f78001e009000e20f50000e00320080
:1026a400e30f500016003200e10f50001f003a0003
:1026b400116180001e00780001007000e3c1200059
:1026c40011322400d2bc2a008209780081097800e2
:1026d4001061880016003700116280001e00780027
:1026e40001007000e3c1200011322400d2bc2a0092
:1026f4008209780081097800106288000c00370094
:10270400116380001e00780001007000e3c1200006
:1027140011322400d2bc2a00820978008109780091
:102724001063880000000000010037000000000072
:102734000080fa00000006000200fa00000f780092
:102744001e007800e20f50000e003200e30f50002c
:1027540016003200e10f50001f003a0011618000a2
:10276400f0cf2f0000806000e3c12000113224006c
:10277400d2bc2a008209780081097800106188009f
:102784001600370011628000f0cf2f000080600037
:10279400e3c1200011322400d2bc2a00820978004f
:1027a40081097800106288000c00370011638000f2
:1027b400f0cf2f0000806000e3c12000113224001c
:1027c400d2bc2a008209780081097800106388004d
:1027d4000000000001003700000000000080fa0043
:1027e400000006001200fa00889fbe0050079800ff
:1027f4006107980072079800030f98000000eb002f
:10280400000f78000000eb00100798000000eb00b8
:10281400200798000000eb00300798000000eb0050
:1028240040079800de0090006e0090000080500089
:10283400000f78009e00780010802f00808f5000d9
:1028440002003d0010802f00000f78009e007800e9
:10285400f07f2000808f500002003400f07f2000c1
:10286400000f780030828000ee009000008050005d
:10287400300798007e0090006101b8003e0090008f
:10288400cf80de00809ab900828bb900860278007e
:10289400050242000010b8000102420084007800e2
:1028a4004409dd004c04de0008047100cc8cde0019
:1028b40008007800100798000e0890006101b80025
:1028c4001e007800cf80de00809ab900828bb900a8
:1028d40086027800050242000010b800010242009e
:1028e40084007800408bde00cf8bde000600780089
:1028f40020079800418280001e00900080805000d4
:102904002e009000008040004082880041828000b8
:1029140010802f00808f500002003d0010802f0097
:102924004082880041828000f07f2000808f500028
:1029340002003400f07f200040828800ee00900006
:102944003182880041828000f07f200000804000b6
:10295400400798004e0090004f04be000080fa002b
:10296400000006001200fa00889fbe00500798007d
:102974006107980072079800030f98000000eb00ad
:10298400000f78000000eb00100798000000eb0037
:10299400200798000000eb00300798000000eb00cf
:1029a40040079800de0090006e0090000080500008
:1029b400000f78009e00780010802f00808f500058
:1029c40002003d0010802f00000f78009e00780068
:1029d400f07f2000808f500002003400f07f200040
:1029e400000f780010828000ee00900000805000fc
:1029f400300798007e0090006101b8003e0090000e
:102a0400cf80de00809ab900828bb90086027800fc
:102a1400050242000010b800010242008400780060
:102a24004409dd004c04de0008047100cc8cde0097
:102a340008007800100798000e0890006101b800a3
:102a44001e007800cf80de00809ab900828bb90026
:102a540086027800050242000010b800010242001c
:102a640084007800408bde00cf8bde000600780007
:102a740020079800218280001e0090008080500072
:102a84002e00900000804000208288002182800077
:102a940010802f00808f500002003d0010802f0016
:102aa4002082880021828000f07f2000808f5000e7
:102ab40002003400f07f200020828800ee009000a5
:102ac4001182880021828000f07f20000080400075
:102ad400400798004e0090004f04be000080fa00aa
:102ae400000006000000fa008000200000118800a9
:102af4002222ef0070092000401188002168a800fc
:102b040045010700e006210050838800e00621000b
:102b140040838800000a210030838800000a2100d5
:102b240020838800608380000010a00060838800f8
:102b3400608380000090a000608388006083800030
:102b44000080a10060838800608380000000a100f1
:102b5400608388000080fa00000006000200fa008a
:102b64000040eb00004f780030838000104f780065
:102b7400308380000000e8003083880031838000c7
:102b8400200d2100808f500002003a00000a21002d
:102b9400308388003183800020838000808f500040
:102ba40003003a00608380000010a0006083880066
:102bb400608380000000a100608388001e407800cc
:102bc4000080fa00000006000600fa00881f780062
:102bd40010079800210798000000eb00000f780010
:102be4000900370060838000620060000000e0009c
:102bf4000a003a001e0090001e044000d7ff0700a0
:102c0400004c78001e0fe8002e0090009e00780013
:102c1400808f5000f3ff39000100370000000000ee
:102c24001e0078004f0478000080fa0000000600bf
:102c34000200fa00004f78002188a9004083800038
:102c44001e487800408380000000e800408388002c
:102c540041838000000a2100808f500002003a0066
:102c6400e006210040838800608380000090a1007a
:102c7400608388005183800040838000808f5000ef
:102c840003003a00608380000080a0006083880015
:102c94002188a8000080fa00000006000600fa005f
:102ca40010079800210798000000eb00000f78003f
:102cb4000a0037006183800000102000008060005b
:102cc4000000e0000a003a001e0090001e004000d0
:102cd400104078001e0fe800d5ff07002e0090007a
:102ce4009e007800808f5000f2ff39000100370009
:102cf400000000001e0078000080fa0000000600ba
:102d04000200fa000000eb00000f780061838000ed
:102d140000202000008060000000e000010032007c
:102d24001e40a0006183800000102000008060002d
:102d34000000e000010032001e30a000608380002b
:102d4400610060000000e000010032001e00a000ed
:102d540060838000620060000000e0000200320036
:102d64001e20a000010037001e10a0001e007800e5
:102d74000080fa00000006000200fa00000f78004c
:102d8400308380009e004000200d2100808f500081
:102d940009003900308380009e004000200d21008e
:102da4000000ea0000804000010a21000080400089
:102db4001040780003003700308380001e0040007c
:102dc400104078000080fa00000006000800fa00b5
:102dd40020079800310798000000eb0010079800c6
:102de40010c0b300004f7800be0090001003200014
:102df400808f500007003e00608380006200600006
:102e04000000e00003003a002e0090000000e00003
:102e140003003a000040eb00004f78003400370014
:102e240030838000800078003e0090008080400065
:102e3400000a21000000ea008080400020032000f6
:102e440000017800110009008280d8008000fd0094
:102e5400100798003183800020838000808f500009
:102e64000a003100318380003e00900080804000e1
:102e7400208380000000e900808f50001500360098
:102e84000040eb00004f78001200370031838000cf
:102e940020838000808f50000e0036009e0090003a
:102ea400000a21008080400030838000808f500021
:102eb400080031009e009000000a2100808040003c
:102ec40020838000808f5000020039000040eb0016
:102ed400004f78001e4078000004e0000400320037
:102ee4003e009000a4ff0700ae00900080487800e8
:102ef4001e4078000080fa00000006000000fa007e
:102f040060838000610060000000e0000f003a0070
:102f14003183800020838000808f500005003600bc
:102f2400308380008000780020838000008050007f
:102f34000700370030838000800078002083800001
:102f4400008050002003b000010037000000eb00b7
:102f54000080fa00000006000000fa00618380008f
:102f640000102000008060000000e0000f003a0024
:102f74005183800040838000808f5000050036001c
:102f840050838000800078004083800000805000df
:102f94000700370050838000800078004083800061
:102fa400008050002003b000010037000000eb0057
:102fb4000080fa00000006000000fa006083800030
:102fc4000000d100614060000080fb0000f0a70019
:102fd4000000ea000000ea004f00de000040780034
:102fe4000080fa00000006000000fa006083800000
:102ff4004800de00614060000080fb0000f0a70094
:103004000000ea000000ea004f00de000040780003
:103014000080fa00000006000000fa0021e2a80087
:103024002342a8000080fa00000006000000fa0015
:1030340021e2a9002342a9000080fa000000060052
:103044000000fa00101180000080fa000000060061
:103054000000fa00a00320001013880010002000d4
:1030640020138800c0002000001388000080fa00ac
:10307400000006000400fa00000f78001107980011
:103084000000000000138000620060000000e00007
:10309400fcff3a001e007800104078000080fb001e
:1030a400401388000000000001138000000220008b
:1030b400008060000000e000fbff3a004013800045
:1030c400804078001e009000014878000080fa00db
:1030d400000006001800fa00100f9800210f980055
:1030e400320f98000000eb00000f78000000eb00a6
:1030f400100798000000eb00700798000000eb0038
:10310400000f980010002000600798001e0890002f
:103114000000e00005003a000000eb0050079800b2
:10312400700047002007980004003700ee0090006c
:10313400510798009e089000210798003e089000cf
:103144000000e00005003a000000eb004007980092
:103154006e0047003007980005003700ee0090002d
:1031640041079800be089000310798000000000055
:1031740000138000620060000000e000fcff3a00e1
:103184001d00370000138000620060000000e000b2
:1031940009003a002e009000104078000080fb00e7
:1031a40040138800ae0090005e0090000080400054
:1031b400200798001e0fe800011380000002200081
:1031c400008060000000e0000b003a004013800023
:1031d400804078003e00900001487800be009000d6
:1031e4004e00900000804000300798001e009000c0
:1031f4000000e800100798002e0890009e00780058
:10320400808f5000dfff3900100037000113800069
:1032140000022000008060000000e0000b003a0083
:1032240040138000804078003e0090000148780000
:10323400be0090004e0090000080400030079800cf
:103244001e0090000000e800100798009e00900007
:103254002e089000808f5000ecff39001e0078008b
:103264000080fa00000006000400fa0020479800dd
:103274000e80e8008e0078007eff07001e40780074
:103284000080fa00000006000600fa00000f780033
:1032940011079800220798002e0190009e009000cc
:1032a4001e0078008bff07000080fa000000060073
:1032b4000000fa001113800000402000008060002c
:1032c4000000e00002003a000000eb0001003700bb
:1032d400100020000080fa00000006000000fa0040
:1032e400001380000080fa00000006000000fa00cd
:1032f400022cef00042cef00062cef000a2cef0048
:103304001a2cef001e2cef004020200000618800e2
:103314004020200000628800602cef0000002c0098
:10332400e3c1200011322400d2bc2a0082097800b3
:10333400810978001061880000002c00e3c120009e
:1033440011322400d2bc2a00820978008109780055
:10335400106288000000eb00e3c120001132240059
:10336400d2bc2a00820978008109780010638800a1
:1033740030002000e3c1200011322400d2bc2a0016
:1033840082097800810978002061880030002000db
:10339400e3c1200011322400d2bc2a008209780043
:1033a400810978002062880030002000e3c12000f9
:1033b40011322400d2bc2a008209780081097800e5
:1033c40020638800204d2000306188008070200038
:1033d40030628800662cef0000962000406188006f
:1033e4000096200040628800682cef002003200033
:1033f4005061880020032000506288006a2cef008e
:10340400200320006061880020032000606288009f
:103414006c2cef00322cef00522cef00722cef00da
:10342400342cef00542cef00742cef003a2cef00f6
:103434005a2cef007a2cef003c2cef005c2cef00b0
:103444007c2cef003e2cef005e2cef007e2cef0076
:1034540000002800006088000080fa0000000600d8
:103464000000fa000080fa00000006000000fa00e4
:103474003140800000202000008060000000e00057
:1034840002003200f6ff07000728a9000080fa00b6
:10349400000006000000fa000080fa0000000600a8
:1034a4000000fa003140800000202000008060000d
:1034b4000000e00002003200f6ff07000bc8a9007c
:1034c4000080fa00000006000000fa000080fa0004
:1034d400000006000000fa003140800000202000b7
:1034e400008060000000e00002003200f6ff0700e8
:1034f4000be8a9000080fa00000006000000fa00b2
:103504000080fa00000006000000fa00314080004c
:1035140000202000008060000000e0000200320073
:10352400f6ff07000c08a9000080fa00000006005e
:103534000000fa00003a80000080fa000000060053
:103544000200fa00faff0700000f78001e0078005e
:10355400240007000004e0000200320000002800fc
:10356400710007001e0078002a0007000004e00034
:1035740002003200000024006b0007001e007800e7
:10358400320007000004e0000200320000202000a6
:10359400650007001e0078003a0007000004e00000
:1035a40002003200000820005f0007001e007800bf
:1035b400420007000004e000020032000004200082
:1035c400590007001e0078004a0007000004e000cc
:1035d4000200320000012000530007000080fa00be
:1035e400000006000400fa00100798000040eb00f9
:1035f400004f78001e0090000000e00002003d0033
:1036040010c0b300004f78001e4078000080fa001c
:10361400000006000400fa00100798000040eb00c8
:10362400004f78009e00900000002400008060009d
:103634000000e0000200320010c0b300004f780028
:103644001e4078000080fa00000006000400fa0022
:10365400100798000040eb00004f78009e00900097
:1036640000202000008060000000e0000200320022
:1036740010c0b300004f78001e4078000080fa00ac
:10368400000006000400fa00100798000040eb0058
:10369400004f78009e009000000820000080600029
:1036a4000000e0000200320010c0b300004f7800b8
:1036b4001e4078000080fa00000006000400fa00b2
:1036c400100798000040eb00004f78009e00900027
:1036d40000042000008060000000e00002003200ce
:1036e40010c0b300004f78001e4078000080fa003c
:1036f400000006000400fa00100798000040eb00e8
:10370400004f78001e009000700060000000e00090
:103714000200320010c0b300004f78001e40780051
:103724000080fa00000006000200fa00000f780092
:103734009e80ea00003a800000806000003a880021
:103744000080fa00000006000000fa004027ef00a5
:103754000080fa00000006000200fa000000eb00fe
:10376400000f7800ecf9070050d0bf000040e800db
:1037740050f0b70050d0bf00e94f500004003600ad
:103784005070ef00008080000000a00000808800de
:1037940051d0bf000040e80051f0b70011052100ee
:1037a4009140780030c6b30080cf5000040036004a
:1037b4005170ef00008080000010a000008088009d
:1037c40052d0bf000040e80052f0b70052d0bf0012
:1037d400e74f4000040036005270ef000080800084
:1037e4000020a0000080880000808000000f780086
:1037f4001e007800680060000000e0000400320051
:103804001e0078000030a100000f7800400007007f
:103814001e007800700060000000e0000400320028
:103824001e0078000040a100000f78003c00070053
:103834009e00780000022000008060000000e0008c
:10384400040032001e0078000050a100000f780030
:10385400360007001e007800610060000040780018
:103864000004e000040032001e0078000000a10003
:10387400000f7800140007001e007800620060004a
:103884000000e000040032001e0078000010a100d7
:10389400000f7800100007001e007800640060002c
:1038a4000000e000040032001e0078000020a100a7
:1038b400000f78000b0007001e00780000808800cd
:1038c4000080fa00000006000000fa0073f8070008
:1038d4000080fa00000006000000fa000080fa00f0
:1038e400000006000000fa0053d0bf000040e800ca
:1038f40053f0b70053d0bf00e44f500002003a0029
:1039040005fb07005370ef000080fa00000006007a
:103914000000fa007ef507000080fa0000000600af
:103924000000fa000080fa00000006000000fa001f
:103934000080fa00000006000000fa00042eef00e8
:10394400142eef000008200020718800342eef00b0
:10395400442eef00542eef00642eef0030b8210007
:1039640000708800e07f200080708800f0d72b0072
:1039740000718800001420008071880000002f006e
:10398400007288003000200080728800003c200013
:10399400007388000c2eef001c2eef002c2eef007d
:1039a4003c2eef004c2eef005c2eef006c2eef004f
:1039b4000a2eef001a2eef002a2eef003a2eef0007
:1039c4004a2eef005a2eef006a2eef00062eef006b
:1039d400162eef00262eef00362eef00462eef00b7
:1039e400562eef00662eef00300120007070880024
:1039f400e0102000f07088007000200070718800d2
:103a040000002f0070728800008021004070880040
:103a14000024200040738800113a8000f00b20003d
:103a240000816000600420007105200023742000e0
:103a340080497800814978008249780051348000b7
:103a4400f00f2c00008060000080a000503488003b
:103a54002136800000f82f00808060008003200061
:103a64000100700020368800e135800000f82f0046
:103a7400808060007007200001007000e03588003d
:103a8400e1358000f00f280080806000008027006e
:103a940001007000e0358800103a800000017800d1
:103aa4000260a0006004200071052000237420003f
:103ab4008049780081497800824978000080fa00c2
:103ac400000006000000fa000621ef00f0ab22001f
:103ad40060088800000228008008880000838000b5
:103ae4000000e00002003a00c0db210025000700ce
:103af40000e8a90020e8a800201b21008040eb007a
:103b0400014878000080fa00000006000200fa0074
:103b1400000f78009e00780061088800201b2100b7
:103b24008040eb00014878000080fa0000000600a5
:103b34000000fa00600880000080fa00000006001f
:103b44000200fa00000f78009e0078003108880017
:103b5400201b21008040eb00014878000080fa001f
:103b6400000006000000fa00300880000080fa001f
:103b7400000006000000fa007af607000080fa0050
:103b8400000006000200fa00000f780020e8a900f7
:103b94009e0078000183880020e8a8000080fa00d5
:103ba400000006000000fa00201b21008040eb000a
:103bb4000148780020e8a80011e1a8000080fa007c
:103bc400000006000000fa0011e1a9000080fa00dc
:103bd400000006000200fa00201b2100104f7800ac
:103be4001e4078000004e00003003200201b210086
:103bf4008040eb00014878001e4078000080fa0005
:103c0400000006000000fa00301b2100104078007c
:103c14000080fb000080fa00000006000000fa00ab
:103c2400301b21008040eb00014878000080fa003e
:103c3400000006000000fa000021ef00d0da2000a6
:103c4400100888000000280020088800001b2100bc
:103c54008040eb00014878000080fa000000060074
:103c64000000fa0000408000680060000000e000ee
:103c74000a003200101b2100104078008040e80048
:103c8400101b210001487800001b210011c0b30063
:103c9400014878000068a900affe07000080fa0020
:103ca400000006000200fa00000f78009e00780071
:103cb40011088800001b21008040eb0001487800b7
:103cc4000080fa00000006000000fa0010088000de
:103cd4000080fa00000006000200fa00000f7800dd
:103ce4009e00780001088800001b21008040eb0042
:103cf400014878000080fa00000006000000fa0085
:103d0400000880000080fa00000006000000fa00ad
:103d1400001b21008040eb000148780005e1a80069
:103d24000080fa00000006000000fa0005e1a90086
:103d34000080fa00000006000200fa00001b2100c7
:103d4400104f78001e4078000004e00003003200a9
:103d5400001b21008040eb00014878001e407800e1
:103d64000080fa00000006000000fa00101b210089
:103d7400104078000080fb000080fa00000006007c
:103d84000000fa00101b21008040eb00014878007d
:083d94000080fa0000000600a7
:020000040000fa
:103d9c00901100002000000080000000581000006e
:103dac000200000082000000ffff00005a1000001b
:103dbc000200000080000000b011000002000000b2
:103dcc00800000005c100000020000008000000079
:103ddc00641000006e000000800000005e10000007
:103dec000200000080000000b21100000200000080
:103dfc008000000060100000020000008000000045
:103e0c002c110000320000008000000000100000a7
:103e1c002200000080000000361000000c000000a2
:103e2c00820000000101d00007e80300d007f40075
:103e3c000132000042100000080000008000000069
:103e4c00621000000200000082000000010000006f
:103e5c005010000004000000800000005e11000003
:103e6c00320000008200000000aa55000000000093
:103e7c000000000000000000000000000000000036
:103e8c000000000000000000000000000000000026
:103e9c000000000000000000000000000000000016
:103eac0000000000000000000000000054100000a2
:103ebc0004000000820000001027a0000f0000008a
:103ecc00221000001400000080000000d21000003e
:103edc005a000000800000004a100000060000009c
:083eec0080000000000000004e
:020000040000fa
:103ef4000000fa0043c7bf008080fb00800f200051
:103f04000081600080072000a10920003374200094
:103f1400804978008149780082497800103a80000d
:103f24004c00de00e7406000103a80004800de00ec
:103f34006740600080cf50001300320042c7bf00ca
:103f44000081fb0060042000710520002374200020
:103f54008049780081497800824978000000000097
:103f6400103a8000610060000000e000fcff3a00ad
:103f740000000000113a8000000220000080600070
:103f84000000e000fbff320000102300203a88000c
:103f94004827ef004e27ef0040022000303a880007
:103fa4006027ef006227ef006427ef006627ef0029
:103fb4006a27ef006c27ef00320020008007200002
:103fc400a1092000337420008049780081497800d9
:103fd400824978001200200060042000710520004e
:103fe4002374200080497800814978008249780050
:103ff40000000000103a8000610060000000e00052
:10400400fcff3a0000000000113a8000000220008a
:10401400008060000000e000fbff32000080fa0036
:10402400000006000000fa0001eca8000080fa007d
:10403400000006000400fa00000f78001107980041
:104044001e007800e20f500007003200e30f50001a
:1040540008003200e10f50000a003a009e00900070
:1040640031618800080037009e00900031628800aa
:10407400050037009e0090003163880000000000b6
:1040840001003700000000000080fa000000060074
:104094000000fa0039000700a4000700e1ff070050
:1040a4008000eb0010002000e2ff07008000eb001e
:1040b40020002000dfff07008ff50700048ea90011
:1040c40012ff0700810007008800070011738000b9
:1040d40000042000008060000000e00004003a00ba
:1040e40034aea90010c0b30037f0b70002003700a7
:1040f40034aea8003770ef00107380004900de0072
:104104006140600080407800200020008008dd00cd
:10411400107080004b00de006140600000404000f1
:1041240080c04000107080004c00de0061406000e0
:1041340000c0400036f0b700c9fe0700feff37009c
:104144000200fa00000f780021028000200f2000f6
:10415400008060001e007000200288000080fa00c9
:10416400000006000000fa00c3e8a80000000000f8
:10417400000000000080fa00000006000000fa00c1
:10418400edfd07005aff070029000700b0fb0700f8
:1041940054fa07000800070054fc070049fe070012
:1041a400a4fe0700efff070000022000e4ff070061
:1041b4000080fa00000006000000fa0040402800d9
:1041c400001988002223ef004000200020198800f5
:1041d4002823ef002e23ef003023ef003223ef00db
:1041e4002623ef00101980004200de007f406000ab
:1041f4005af0b7000080fa00000006000000fa0040
:104204000080fa00000006000000fa00014080006f
:1042140000002200008060000000e0000200320084
:10422400f6ff070001a8a9000080fa0000000600bc
:104234000000fa0001438000f0f82f0000806000c5
:104244000040a000004388003142800080ff2f001e
:10425400008060000000a0003042880021428000fd
:10426400f0ff28000080600000c0a0002042880009
:1042740011428000f0ff28000080600000c0a00010
:10428400104288000080fa00000006000000fa00d6
:1042940017ff07000080fa00000006000000fa0083
:1042a400003a80000080fa00000006000000fa00d6
:1042b400a3fc07000080fa00000006000000fa00da
:1042c40021fd07000080fa00000006000000fa004b
:1042d400c3e8a8000080fa00000006000000fa000d
:1042e400c3e8a9000080fa00000006000000fa00fc
:1042f4002268a8000268a9000080fa0000000600f5
:10430400000f78009e007800c1828800ffff37000c
:104314000000fa000019210080077800801a2100ab
:10432400000188000080fa00000006000000fa0086
:1043340000002800000e880000002400100e8800f1
:104344000080fa00000006000000fa00600e800001
:084354000080fa0000000600e1
:020000040000fa
:020000040001f9
:045fe000ceff0000f0
:020000040000fa
:020000040001f9
:045fe400ffff0000bb
:020000040000fa
:020000040001f9
:045fe8007fff000037
:020000040000fa
:020000040001f9
:045fec003dff000075
:020000040000fa
:020000040001f9
:045ff0007bff000033
:020000040000fa
:020000040001f9
:045ff400ffff0000ab
:00000001FF
