:020000040000fa
:080000000002040000000000f2
:020000040000fa
:04000800fe020000f4
:020000040000fa
:04000c0010030000dd
:020000040000fa
:0400100028030000c1
:020000040000fa
:0400140006030000df
:020000040000fa
:0400180018030000c9
:020000040000fa
:04001c0020030000bd
:020000040000fa
:0400200030030000a9
:020000040000fa
:04002400780400005c
:020000040000fa
:040028007804000058
:020000040000fa
:04002c007804000054
:020000040000fa
:040030007804000050
:020000040000fa
:04003400780400004c
:020000040000fa
:040038007804000048
:020000040000fa
:04003c007804000044
:020000040000fa
:040040007804000040
:020000040000fa
:040044004204000072
:020000040000fa
:040048007804000038
:020000040000fa
:04004c007804000034
:020000040000fa
:040050007804000030
:020000040000fa
:04005400a403000001
:020000040000fa
:040058003803000069
:020000040000fa
:04005c007804000024
:020000040000fa
:040060007804000020
:020000040000fa
:04006400780400001c
:020000040000fa
:040068007804000018
:020000040000fa
:04006c007804000014
:020000040000fa
:040070007804000010
:020000040000fa
:04007400780400000c
:020000040000fa
:040078007804000008
:020000040000fa
:04007c007804000004
:020000040000fa
:040080007804000000
:020000040000fa
:0400840078040000fc
:020000040000fa
:0400880078040000f8
:020000040000fa
:04008c0078040000f4
:020000040000fa
:0400900078040000f0
:020000040000fa
:0400940078040000ec
:020000040000fa
:0400980078040000e8
:020000040000fa
:04009c0078040000e4
:020000040000fa
:0400a00078040000e0
:020000040000fa
:0400a40078040000dc
:020000040000fa
:0400a80078040000d8
:020000040000fa
:0400ac0078040000d4
:020000040000fa
:0400b00078040000d0
:020000040000fa
:0400b40078040000cc
:020000040000fa
:0400b80078040000c8
:020000040000fa
:0400bc0078040000c4
:020000040000fa
:0400c00078040000c0
:020000040000fa
:0400c40078040000bc
:020000040000fa
:0400c80078040000b8
:020000040000fa
:0400cc0078040000b4
:020000040000fa
:0400d00078040000b0
:020000040000fa
:0400d40078040000ac
:020000040000fa
:0400d80078040000a8
:020000040000fa
:0400dc0078040000a4
:020000040000fa
:0400e00078040000a0
:020000040000fa
:0400e400780400009c
:020000040000fa
:0400e8007804000098
:020000040000fa
:0400ec007804000094
:020000040000fa
:0400f0007804000090
:020000040000fa
:0400f400780400008c
:020000040000fa
:0400f8007804000088
:020000040000fa
:0400fc007804000084
:020000040000fa
:04010000780400007f
:020000040000fa
:04010400780400007b
:020000040000fa
:040108007804000077
:020000040000fa
:04010c007804000073
:020000040000fa
:04011000780400006f
:020000040000fa
:04011400780400006b
:020000040000fa
:040118007804000067
:020000040000fa
:04011c007804000063
:020000040000fa
:04012000780400005f
:020000040000fa
:04012400780400005b
:020000040000fa
:040128007804000057
:020000040000fa
:04012c002c0400009f
:020000040000fa
:04013000780400004f
:020000040000fa
:04013400780400004b
:020000040000fa
:040138007804000047
:020000040000fa
:04013c007804000043
:020000040000fa
:04014000780400003f
:020000040000fa
:04014400780400003b
:020000040000fa
:040148007804000037
:020000040000fa
:04014c007804000033
:020000040000fa
:04015000780400002f
:020000040000fa
:04015400780400002b
:020000040000fa
:040158007804000027
:020000040000fa
:04015c007804000023
:020000040000fa
:04016000780400001f
:020000040000fa
:04016400780400001b
:020000040000fa
:040168007804000017
:020000040000fa
:04016c007804000013
:020000040000fa
:04017000780400000f
:020000040000fa
:04017400780400000b
:020000040000fa
:040178007804000007
:020000040000fa
:04017c007804000003
:020000040000fa
:0401800078040000ff
:020000040000fa
:0401840078040000fb
:020000040000fa
:0401880078040000f7
:020000040000fa
:04018c0078040000f3
:020000040000fa
:0401900078040000ef
:020000040000fa
:0401940078040000eb
:020000040000fa
:0401980078040000e7
:020000040000fa
:04019c0078040000e3
:020000040000fa
:0401a00078040000df
:020000040000fa
:0401a40078040000db
:020000040000fa
:0401a80078040000d7
:020000040000fa
:0401ac0078040000d3
:020000040000fa
:0401b00078040000cf
:020000040000fa
:0401b40078040000cb
:020000040000fa
:0401b80078040000c7
:020000040000fa
:0401bc0078040000c3
:020000040000fa
:0401c00078040000bf
:020000040000fa
:0401c40078040000bb
:020000040000fa
:0401c80078040000b7
:020000040000fa
:0401cc0078040000b3
:020000040000fa
:0401d00078040000af
:020000040000fa
:0401d40078040000ab
:020000040000fa
:0401d80078040000a7
:020000040000fa
:0401dc0078040000a3
:020000040000fa
:0401e000780400009f
:020000040000fa
:0401e400780400009b
:020000040000fa
:0401e8007804000097
:020000040000fa
:0401ec007804000093
:020000040000fa
:0401f000780400008f
:020000040000fa
:0401f400780400008b
:020000040000fa
:0401f8007804000087
:020000040000fa
:0401fc007804000083
:020000040000fa
:04020000780400007e
:020000040000fa
:04020400780400007a
:020000040000fa
:040208007804000076
:020000040000fa
:04020c007804000072
:020000040000fa
:04021000780400006e
:020000040000fa
:04021400780400006a
:020000040000fa
:040218007804000066
:020000040000fa
:04021c007804000062
:020000040000fa
:04022000780400005e
:020000040000fa
:04022400780400005a
:020000040000fa
:040228007804000056
:020000040000fa
:04022c007804000052
:020000040000fa
:04023000780400004e
:020000040000fa
:04023400780400004a
:020000040000fa
:040238007804000046
:020000040000fa
:04023c007804000042
:020000040000fa
:04024000780400003e
:020000040000fa
:04024400780400003a
:020000040000fa
:040248007804000036
:020000040000fa
:04024c007804000032
:020000040000fa
:04025000780400002e
:020000040000fa
:04025400780400002a
:020000040000fa
:040258007804000026
:020000040000fa
:04025c007804000022
:020000040000fa
:04026000780400001e
:020000040000fa
:04026400780400001a
:020000040000fa
:040268007804000016
:020000040000fa
:04026c007804000012
:020000040000fa
:04027000780400000e
:020000040000fa
:04027400780400000a
:020000040000fa
:040278007804000006
:020000040000fa
:04027c007804000002
:020000040000fa
:0402800078040000fe
:020000040000fa
:100400004f1a21000eff22000e018800000000009c
:10041000000020000000e000020032000001200087
:100420002002880014000700330107000000e000ec
:1004300003003a00c08c21000100200002003700b8
:100440000000200001002000810f70000100320038
:100450000f000700000020000000e0000200320052
:100460000000020000000000ee1a02000000000080
:100470000040da000000fe00200020000000e00044
:1004800002003200100020009001880000000600e9
:10049000a1028800800478000000eb001f003700f4
:1004a000e284440054a0b4009905ba00e2844400f8
:1004b00054a0b4009906ba00e284440054a0b400e9
:1004c0000006eb00476fde00fd07b200ae018800ba
:1004d000636ce10003003a000ad801000000eb0061
:1004e0000e003700606ce10008003a00004deb00a0
:1004f0000a05e800020039003420ec000af0a000f0
:100500008b05e900f9ff3e00040037006168e10057
:10051000010032000086eb000b00070019c7ba008b
:100520000e04e0001905ba0003003a000a00e000da
:10053000dbff3a0000000600fe07b200ae028800b2
:100540008a047800f5ff37000cd0a300e20f4d00bd
:100550001c00390089027800354dba000a05e80010
:10056000020039003420ec000af0a0008b05e900fd
:100570000f003200254dba000a05e80002003900dc
:100580003420ec000af0a0008b05e90008003200de
:100590000c00e0000600320015cdba000a05e800a4
:1005a000020039003420ec000af0a0008b05e900bd
:1005b0008984e80054a0b4000b00e000e2ff3a0098
:1005c000000006009902ba00055d78008b05e9007d
:1005d000f7ff3200c82ade00055d78008b05e900d0
:1005e000f3ff32000c00e000f1ff320019ddba0029
:1005f000eeff370000000000000000003600f800a9
:10060000c028a9000000eb00700c07003600f800bd
:10061000720c0700c048a900100020006b0c0700f6
:100620003600f800c068a90020002000670c070011
:100630003600f800c088a90030002000630c0700d5
:100640003600f800c0a8a900400020005f0c070099
:100650003600f800c608a900700020005b0c0700f7
:100660003600f800c488a900a0002000570c07003d
:10067000809fbe000000fa00d1828000c08280000e
:10068000808f500010003a00e182800000102000ae
:10069000008060000000e0000b003a000000000055
:1006a0001111800000102000008060000000e000b8
:1006b000fbff3200e08280000090a000e082880012
:1006c0002188a9001d0037000188a9001400370007
:1006d000d0828000104078000080fb00201188004c
:1006e000d08280000000e800d0828800d1828000a3
:1006f00000092100808f500002003a00e00521002f
:10070000d0828800e08280000080a100e082880022
:10071000d1828000c0828000808f500006003200ad
:100720001111800000202000008060000000e00027
:10073000e7ff320001003700000000000080fa00ef
:100740004f00be00004006003600f800809fbe004b
:10075000829fbe00849fbe00869fbe000200fa00fa
:100760000040eb00004f78002a0037003011800075
:1007700000407800004f78009e40780000c8b30029
:1007800080cf500005003a001ad0bf000004e000fe
:1007900002003a0010c0b3001af0b7001ad0bf0030
:1007a0000004e00003003a0010c0b3004cf0b700b2
:1007b0001c0037004c70ef00a08280009e40780043
:1007c00001487800a08280000000e800a082880034
:1007d000a1828000200c2100808f500002003a008e
:1007e00000092100a0828800e08280000010a100a2
:1007f000e0828800a1828000b0828000808f50005b
:1008000004003a00e08280000000a000e08288003e
:100810000400370010118000610060000000e0005b
:10082000d2ff3a004cd0bf000004e00002003a00c2
:100830001e407800960107000168a9000080fa00b8
:100840004f03be004f02be004f01be004f00be006e
:100850003600f90000400600801f78000000fa0012
:1008600010118000620060000000e0000100320012
:100870002222a9000828a9000080fa004f00780071
:10088000004006003600f800809fbe00829fbe0038
:10089000849fbe00869fbe000000fa007082800028
:1008a0000000e000020032007082800000000100c1
:1008b000301a2100104078008040e800301a2100f2
:1008c00001487800201a210011c0b30001487800c7
:1008d00000e8a9000080fa004f03be004f02be00ee
:1008e0004f01be004f00be003600f9000040060078
:1008f0000040da000000fe000000050080017800e2
:1009000002003700b15978000201e9000200e0005e
:08091000fcff3a0000000600a4
:020000040000fa
:100918001400fa000000eb00000f78000000eb0064
:10092800100798000000eb00200798000000eb007b
:10093800300798000000eb00400798000000eb002b
:10094800500798000000eb00600798000000eb00db
:10095800700798000000eb00000f98000040eb00c3
:100968002057980095090700cd06070021032000ad
:1009780000805000000f78001e007800800078008a
:10098800c0112100f90507001e0078000000e900e9
:10099800c111210000804000104078000080fb0059
:1009a8004800dd00800078001e0078000080e90023
:1009b800c211210000004100104078000080fb00b7
:1009c80001007000100798001e0078000080e90000
:1009d80080007800c01121009601070020079800c8
:1009e800ae0090001e009000808f5000f5003a0085
:1009f800c01121009040780000c8b30080cf50009b
:100a0800f0003a00e0112100104078000080fb005f
:100a18004800dd0080007800f011210010407800c7
:100a28000080fb00010070003007980000122100d0
:100a3800104078000080fb004800dd00800078004e
:100a480010122100104078000080fb0001007000a7
:100a580040079800d011210010407800e34f500063
:100a6800ac003a0022c3b30021c0b300c01121007a
:100a7800580107003e009000ef0f50003e003e0076
:100a88003e009000500798005e009000e10f400083
:100a980002003d000000eb00500798005e00900047
:100aa800ef0f500002003400f000200050079800bb
:100ab8004e009000ee0f500002003600f0002000bb
:100ac800400798000000eb00600798000040eb002a
:100ad80020579800220037002e5090008080fb009d
:100ae8005e0090000080400080004000200c210043
:100af8000080400010007800700798002e50900089
:100b08000080fb00e10f21000080400010407800c9
:100b18000080fb00000f9800ee0090000e08900087
:100b280000804000600798000e0990007e00900049
:100b3800800078002e5090008081fb000e08900005
:100b48008098b900e3014000c011210000804100f5
:100b580068ff07002e5090000040e80020579800da
:100b68002e5090008080fb004e009000808f500037
:100b7800d9ff390047003700be009000300220003e
:100b8800808f500043003e003e00900074005000eb
:100b9800500798005e009000e10f400002003d0001
:100ba8000000eb00500798005e009000ef0f500027
:100bb80002003400f0002000500798004e0090001a
:100bc800f30f5000020036008002200060079800f2
:100bd8004e009000f30f5000020036004001200044
:100be800400798000000eb00600798000040eb0009
:100bf80020579800220037002e5090008080fb007c
:100c08005e0090000080400080004000000e21003f
:100c18000080400010007800700798002e50900067
:100c28000080fb00d11021000080400010407800b7
:100c38000080fb00000f9800ee0090000e08900066
:100c480000804000600798000e0990007e00900028
:100c5800800078002e5090008081fb000e089000e4
:100c68008098b900e3014000c011210000804100d4
:100c780020ff07002e5090000040e8002057980001
:100c88002e5090008080fb004e009000808f500016
:100c9800d9ff39006e00900080407800e0112100f3
:100ca800014878006e0090006300400080007800e2
:100cb800c0112100df000700200798006e00900097
:100cc80063004000ae00900081407800c21121000e
:100cd80000004100014878006e0090006400400068
:100ce800ae009000c808de0081407800c2112100e3
:100cf80000004100014878006e0090000040780034
:100d08006540400080407800c01121003a0007008b
:100d180032003700d011210010407800e64f500013
:100d280023003a00be00900030022000808f50005f
:100d380029003e003e0090007400500050079800c3
:100d48005e009000e10f400002003d000000eb0053
:100d5800500798005e009000ef0f5000020034002a
:100d6800f0002000500798005e009000d11021008c
:100d780000804000104078000081fb000112210033
:100d88005e00900080014000000e210000804100bc
:100d980010007800d7fe07001e0078000040780099
:100da80080407800c0112100130007000b003700b5
:100db80022c3b3008040eb00c0112100850007006a
:100dc8000600370022c3b3008040eb00c0112100a9
:100dd80080000700010037000000000022c3b300b4
:100de8008040eb00c01121007a0007002168a800ac
:100df8000080fa00000006000800fa0020079800aa
:100e0800614798000000eb00100798000000eb0015
:100e1800000f7800048ea8006e4090000080fb0050
:100e2800800078002e009000050507001007980044
:100e38004030ef00010037000000000019050700ee
:100e4800000f78009e007800708f60001e00780008
:100e58000000e00008003a00008280000000e8007e
:100e6800008288000182800000352c00808f5000ad
:100e7800f1ff36000100370000000000048ea900d1
:100e88000080fa00000006000200fa00004f780017
:100e98004208070010c0b3003cf0b7003ed0bf00c6
:100ea800e14f500015003a001e407800e34f500013
:100eb800030032001e407800e64f500004003a005c
:100ec8003f70ef0080c0b30028f0b7000b00370078
:100ed8001e407800f04f500005003a0010c0b300e3
:100ee8003ff0b70090c0b30028f0b7000300370008
:100ef8003f70ef0050c0b30028f0b7003fd0bf00ec
:100f0800e14f500007003a003ed0bf00e64f5000c6
:100f180004003a003f70ef0028d0bf001e40400098
:100f280028f0b7003ed0bf000040e8003ef0b70010
:100f3800e10321009140780028d0bf0080cf500005
:100f4800060039003e70ef003f70ef00800020007f
:100f5800008088001a70ef002168a9000080fa005c
:100f6800000006000200fa000040eb00004f780085
:100f7800120807003cd0bf00e14f500013003a00b0
:100f880080c0b30028f0b7000040eb00004f7800a5
:100f9800090037001e4078000080fb00c1112100c5
:100fa800008040008040eb00014878001e40780037
:100fb8000040e800004f78009e40780010c3b3005e
:100fc80080cf5000f3ff36002168a8000080fa00a7
:100fd800000006000600fa00100798004147980034
:100fe800524798000040eb00004f7800ce40900038
:100ff800014f7800090037001e4078000080fb0090
:101008009e009000008040008040eb00014878007e
:101018001e4078000040e800004f78009e407800ad
:101028005e40900080cf5000f3ff39000080fa0046
:10103800000006000800fa00200798003107980011
:101048000000eb00000f78000080eb00000f780034
:1010580080002000100798002e00900010407800b3
:101068008080fb001e00780000806800000f780078
:101078002e0090000000e800200798001e0078006d
:1010880061006000004078000004e00008003200c1
:101098001e0078000000d100000f78009e00780044
:1010a80010002a0000806800000f78000300370055
:1010b8001e0078000000d100000f78001e0090008c
:1010c8000000e900100798001e0090000000e000f2
:1010d800eaff3a003e0090000000e900300798005f
:1010e8003e0090000000e000d9ff3a001e007800a2
:1010f8000080fa00000006000200fa000040eb0041
:10110800004f78000040eb00004f78001e40780048
:101118000080fb002101210000014000200c21007b
:1011280000004100010878001e4078000080fb00a4
:10113800e10f21000080400021c0b3000148780081
:101148001e4078000040e800004f78001e407800fc
:101158000080fb004100210000014000200c21001c
:1011680000004100010878001e4078000080fb0064
:10117800e10f21000080400021c0b3000148780041
:101188001e4078000040e800004f78001e407800bc
:101198000080fb004101210000014000200c2100db
:1011a80000004100010878001e4078000080fb0024
:1011b800e10f21000080400021c0b3000148780001
:1011c8001e4078000040e800004f78001e4078007c
:1011d8000080fb008100210000014000200c21005c
:1011e80000004100010878001e4078000080fb00e4
:1011f800e10f21000080400021c0b30001487800c1
:101208001e4078000040e800004f78001e4078003b
:101218000080fb006100210000014000200c21003b
:1012280000004100010878001e4078000080fb00a3
:10123800e10f21000080400021c0b3000148780080
:101248001e4078000040e800004f78001e407800fb
:101258000080fb00a100210000014000200c2100bb
:1012680000004100010878001e4078000080fb0063
:10127800e10f21000080400021c0b3000148780040
:101288001e4078000040e800004f78001e407800bb
:101298000080fb00c100210000014000200c21005b
:1012a80000004100010878001e4078000080fb0023
:1012b800e10f21000080400021c0b3000148780000
:1012c8001e4078000040e800004f78001e4078007b
:1012d8000080fb00e100210000014000200c2100fb
:1012e80000004100010878001e4078000080fb00e3
:1012f800e10f21000080400021c0b30001487800c0
:101308001e4078000040e800004f78000040eb00e5
:10131800004f78001e4078000080fb00e1012100aa
:1013280000014000000e2100000041000108780083
:101338001e4078000080fb00d11021000080400092
:1013480021c0b300014878001e4078000040e80042
:10135800004f78001e4078000080fb000102210049
:1013680000014000000e2100000041000108780043
:101378001e4078000080fb00d11021000080400052
:1013880021c0b300014878001e4078000040e80002
:10139800004f78001e4078000080fb0021022100e9
:1013a80000014000000e2100000041000108780003
:1013b8001e4078000080fb00d11021000080400012
:1013c80021c0b300014878001e4078000040e800c2
:1013d800004f78001e4078000080fb004102210089
:1013e80000014000000e21000000410001087800c3
:1013f8001e4078000080fb00d110210000804000d2
:1014080021c0b300014878001e4078000040e80081
:10141800004f78001e4078000080fb006102210028
:1014280000014000000e2100000041000108780082
:101438001e4078000080fb00d11021000080400091
:1014480021c0b300014878001e4078000040e80041
:10145800004f78001e4078000080fb000101210049
:1014680000014000000e2100000041000108780042
:101478001e4078000080fb00d11021000080400051
:1014880011c0b300014878001e4078000040e80011
:10149800004f78000080fa00000006000000fa0003
:1014a80010d0bf000004e0000f003a0070808000f8
:1014b8000000d100b0808800b180800010032000b7
:1014c800808f500002003e0020032000b08088007a
:1014d800b180800020992000808f500002003600e3
:1014e80020992000b080880010d0bf00e14f500044
:1014f8003a003a00138180000281800091808000c8
:10150800f0808000200207007081880070818000d0
:10151800cf80de0062d120008289b900e002b900e4
:10152800840178000301410063d120000300b80062
:1015380001014100820078004409dd004c00de0012
:1015480000007100cc08de0000007800808188006f
:101558003381800022818000a1808000808180000a
:10156800690207009081880090818000cf80de00aa
:10157800229920008289b900e002b900840178002c
:1015880003014100239920000300b8000101410034
:10159800820078004409dd004c00de000000710084
:1015a800cc08de0000007800b0808800b1808000a0
:1015b80010032000808f500002003e00200320000e
:1015c800b0808800b180800020992000808f500072
:1015d8000200360020992000b0808800b180800089
:1015e8001cd0bf00590107000080fa000000060067
:1015f8003a00fa00889fbe008a9fbe008c9fbe00fa
:101608000000eb00000f78000000eb0010079800c6
:101618000000eb00200798000000eb00300798005e
:101628000000eb00400798000000eb00500798000e
:101638000000eb00600798000040eb00170107006e
:10164800000f780010c0b3001401070010079800bd
:10165800908280000080ea006101b800108080005c
:101668008000eb00809ab90084027800828ab90071
:10167800848242000010b800818242008500780010
:10168800408cde00cf8cde0008037800908280005a
:101698006101b8001e0078008000eb00809cb90052
:1016a80088027800828ab900848242000010b8005b
:1016b8008182420085007800408dde00cf8dde00fb
:1016c8000a007800000043001080880090828000a3
:1016d8000080ea006101b800208080008000eb00f3
:1016e800809ab90084027800828ab9008482420014
:1016f8000010b8008182420085007800408ede002c
:10170800cf8ede000c037800908280006101b80063
:101718001e0090008000eb00809cb90088027800d1
:10172800828ab900848242000010b8008182420097
:10173800850078004089de00720798004f8ade0035
:10174800040f98007e00900000004300208088006d
:1017580010808000a0808800508180000000e80090
:101768005081880051818000700c2000808f5000cb
:10177800980036002a30ef0050c0b300c7000700b9
:101788003007980030c0b300c40007002007980055
:1017980070c0b300c10007005007980080c0b300b4
:1017a800be00070060079800908280000080ea0071
:1017b8006101b800408080008000eb00809bb90088
:1017c80086027800828ab900848242000010b8003c
:1017d8008182420085007800408cde00180f980056
:1017e8004f89de00220f98001e0b90009082800027
:1017f8006101b8003e0090008000eb00809ab900bb
:1018080084027800828ab900848242000010b800fd
:101818008182420085007800408cde00380f9800f5
:101828004f89de00420f98003e08900000004300f8
:1018380040808800908280000080ea006101b80042
:10184800308080008000eb00809ab9008402780024
:10185800828ab900848242000010b8008182420066
:1018680085007800408bde00560f98004f8cde0014
:10187800680f98005e0b9000908280006101b800ac
:101888002e0090008000eb00809ab9008402780056
:10189800828ab900848242000010b8008182420026
:1018a80085007800408cde00780f98004f89de00b4
:1018b800021798007e0890000000430030808800de
:1018c800908280000080ea006101b800608080009a
:1018d8008000eb00809ab90084027800828ab900ff
:1018e800848242000010b80081824200850078009e
:1018f800408bde00161798004f8cde0028179800e2
:101908001e139000908280006101b8005e00900074
:101918008000eb00809ab900828cb90088027800b8
:10192800050242000010b80001024200840078005d
:101938004089de00321798004f8ade00441798006d
:101948003e10900000004300608088009082800074
:101958000080ea006101b800708080008000eb0020
:10196800809ab900828bb90086027800050242008d
:101978000010b8000102420084007800408cde00ac
:10198800581798004f89de0062179800de12900001
:10199800908280006101b8006e0090008000eb002a
:1019a800809ab900828bb900060242000010b80084
:1019b8000102420084007800408ade007417980013
:1019c8004f8bde00061f98007e10900000804200ba
:1019d80070808800608180000000e80060818800d5
:1019e80061818000301f2000808f50002600360063
:1019f8002c30ef0060c0b3002800070040079800b3
:101a0800908280000080ea006101b8005080800068
:101a18008000eb00809ab900828cb90088027800b7
:101a2800050242000010b80001024200840078005c
:101a38004089de00121f98004f8ade00241f98009c
:101a48009e1a9000908280006101b8004e009000bc
:101a58008000eb00809ab900828bb9000602420030
:101a68000010b8000102420084007800408bde00bc
:101a7800361f98004f8cde00481f98003e189000d3
:101a880000804200508088004f06be004f05be000f
:101a98004f04be000080fa00000006000200fa00b1
:101aa800004f78001e80fb00401988002023a90001
:101ab8000000000000198000610060000000e000e4
:101ac800fcff3200001880000080fa0000000600c9
:101ad8000000fa0001eca8000080fa0000000600ef
:101ae8000000fa0001eca9000080fa0000000600de
:101af8000400fa00000f7800110798001e00780013
:101b0800e20f500007003200e30f500008003200d7
:101b1800e10f50000a003a009e00900031618800f1
:101b2800080037009e0090003162880005003700e9
:101b38009e0090003163880000000000010037001b
:101b4800000000000080fa00000006000600fa000d
:101b580020479800210798000000eb00000f78004c
:101b68002e409000e14f500013003a00010521007b
:101b7800914078002e40900080cf50000a0032003b
:101b8800d7ff0700100020005400070000042000c1
:101b9800000f78001e0078008000780020002000e8
:101ba8001c000700caff0700ae00900010002000cc
:101bb800cfff07001200370001052100914078008f
:101bc8002e40900080cf50000a003200c4ff07006a
:101bd800200020004100070000042000000f7800ca
:101be8001e0078008000780010002000090007001f
:101bf800b7ff0700ae00900020002000bcff0700e0
:101c08002e41900001052100824878000080fa00ea
:101c1800000006000600fa00100798002107980047
:101c28000000eb00000f7800ae00900000302000ac
:101c380001007000000f78001e009000e20f5000b5
:101c48000e003200e30f500016003200e10f500082
:101c58001f003a00116180001e007800010070002a
:101c6800e3c1200011322400d2bc2a008209780086
:101c78008109780010618800160037001162800021
:101c88001e00780001007000e3c12000113224001a
:101c9800d2bc2a0082097800810978001062880085
:101ca8000c003700116380001e00780001007000ee
:101cb800e3c1200011322400d2bc2a008209780036
:101cc80081097800106388000000000001003700d7
:101cd800000000000080fa00000006000200fa0080
:101ce800000f78001e007800e20f50000e0032004e
:101cf800e30f500016003200e10f50001f003a00b9
:101d080011618000f0cf2f0000806000e3c1200047
:101d180011322400d2bc2a00820978008109780097
:101d2800106188001600370011628000f0cf2f0084
:101d380000806000e3c1200011322400d2bc2a00d8
:101d48008209780081097800106288000c00370049
:101d580011638000f0cf2f0000806000e3c12000f5
:101d680011322400d2bc2a00820978008109780047
:101d78001063880000000000010037000000000028
:101d88000080fa00000006001200fa00889fbe00da
:101d9800500798006107980072079800030f980091
:101da8000000eb00000f78000000eb00100798001f
:101db8000000eb00200798000000eb0030079800b7
:101dc8000000eb0040079800de0090006e009000d5
:101dd80000805000000f78009e00780000802f00df
:101de800808f500002003d0000802f00000f780017
:101df8009e00780000802000808f50000200340090
:101e080000802000000f7800c0818000ee00900064
:101e180000805000300798007e0090006101b800f3
:101e28003e009000cf80de00809ab900828bb90016
:101e380086027800050242000010b8000102420044
:101e4800840078004409dd004c04de0008047100b9
:101e5800cc8cde0008007800100798000e0890006f
:101e68006101b8001e007800cf80de00809ab900ba
:101e7800828bb90086027800050242000010b80083
:101e88000102420084007800408bde00cf8bde0028
:101e98000600780020079800d18180001e0090007d
:101ea800808050002e00900000804000d081880083
:101eb800d181800000802f00808f500002003d00fb
:101ec80000802f00d0818800d18180000080200010
:101ed800808f50000200340000802000d0818800ec
:101ee800ee009000c1818800d18180000080200030
:101ef80000804000400798004e0090004f04be004c
:101f08000080fa00000006001200fa00889fbe0058
:101f1800500798006107980072079800030f98000f
:101f28000000eb00000f78000000eb00100798009d
:101f38000000eb00200798000000eb003007980035
:101f48000000eb0040079800de0090006e00900053
:101f580000805000000f78009e00780000802f005d
:101f6800808f500002003d0000802f00000f780095
:101f78009e00780000802000808f5000020034000e
:101f880000802000000f7800a0818000ee00900003
:101f980000805000300798007e0090006101b80072
:101fa8003e009000cf80de00809ab900828bb90095
:101fb80086027800050242000010b80001024200c3
:101fc800840078004409dd004c04de000804710038
:101fd800cc8cde0008007800100798000e089000ee
:101fe8006101b8001e007800cf80de00809ab90039
:101ff800828bb90086027800050242000010b80002
:102008000102420084007800408bde00cf8bde00a6
:102018000600780020079800b18180001e0090001b
:10202800808050002e00900000804000b081880021
:10203800b181800000802f00808f500002003d0099
:1020480000802f00b0818800b181800000802000ce
:10205800808f50000200340000802000b08188008a
:10206800ee009000a1818800b181800000802000ee
:1020780000804000400798004e0090004f04be00ca
:102088000080fa00000006000000fa00800020002e
:10209800001188002222ef007009200040118800fa
:1020a8002168a80045010700e0052100d0828800ca
:1020b800e0052100c082880000092100b082880064
:1020c80000092100a0828800e08280000010a000a2
:1020d800e0828800e08280000090a000e082880012
:1020e800e08280000080a100e0828800e082800019
:1020f8000000a100e08288000080fa0000000600cd
:102108000200fa000040eb00004f7800b082800027
:10211800104f7800b08280000000e800b08288008c
:10212800b1828000200c2100808f500002003a000c
:1021380000092100b0828800b1828000a08280005e
:10214800808f500003003a00e08280000010a00059
:10215800e0828800e08280000000a100e082880020
:102168001e4078000080fa00000006000600fa0011
:10217800881f780010079800210798000000eb00de
:10218800000f780009003700e082800062006000dc
:102198000000e0000a003a001e0090001e04400003
:1021a800d7ff0700004c78001e0fe8002e009000b3
:1021b8009e007800808f5000f3ff3900010037003f
:1021c800000000001e0078004f0478000080fa002c
:1021d800000006000200fa00004f78002188a900dc
:1021e800c08280001e487800c08280000000e8009d
:1021f800c0828800c182800000092100808f5000c1
:1022080002003a00e0052100c0828800e0828000d8
:102218000090a100e0828800d1828000c082800006
:10222800808f500003003a00e08280000080a00008
:10223800e08288002188a8000080fa0000000600db
:102248000600fa0010079800210798000000eb002c
:10225800000f78000a003700e1828000001020009b
:10226800008060000000e0000a003a001e009000b4
:102278001e004000104078001e0fe800d5ff070040
:102288002e0090009e007800808f5000f2ff3900e9
:1022980001003700000000001e0078000080fa00ee
:1022a800000006000200fa000000eb00000f7800b2
:1022b800e182800000202000008060000000e00033
:1022c800010032001e40a000e182800000102000c2
:1022d800008060000000e000010032001e30a00015
:1022e800e0828000610060000000e0000100320030
:1022f8001e00a000e0828000620060000000e00094
:10230800020032001e20a000010037001e10a000ad
:102318001e0078000080fa00000006000200fa00a3
:10232800000f7800b08280009e004000200c210041
:10233800808f500009003900b08280009e00400064
:10234800200c21000000ea00008040000109210063
:10235800008040001040780003003700b082800001
:102368001e004000104078000080fa0000000600bf
:102378000800fa0020079800310798000000eb00d9
:102388001007980010c0b300004f7800be009000fe
:1023980010032000808f500007003e00e08280007c
:1023a800620060000000e00003003a002e00900088
:1023b8000000e00003003a000040eb00004f780006
:1023c80034003700b0828000800078003e00900022
:1023d80080804000000921000000ea008080400061
:1023e8002003200000017800110009008280d80035
:1023f8008000fd0010079800b1828000a082800054
:10240800808f50000a003100b18280003e009000a9
:1024180080804000a08280000000e900808f50008a
:10242800150036000040eb00004f7800120037001e
:10243800b1828000a0828000808f50000e0036009c
:102448009e0090000009210080804000b08280003a
:10245800808f5000080031009e0090000009210084
:1024680080804000a0828000808f500002003900e8
:102478000040eb00004f78001e4078000004e000a8
:10248800040032003e009000a4ff0700ae00900058
:10249800804878001e4078000080fa00000006009e
:1024a8000000fa00e0828000610060000000e000a7
:1024b8000f003a00b1828000a0828000808f500017
:1024c80005003600b082800080007800a08280007d
:1024d8000080500007003700b0828000800078003c
:1024e800a0828000008050002003b0000100370067
:1024f8000000eb000080fa00000006000000fa006f
:10250800e182800000102000008060000000e000f0
:102518000f003a00d1828000c0828000808f500076
:1025280005003600d082800080007800c0828000dc
:102538000080500007003700d082800080007800bb
:10254800c0828000008050002003b00001003700e6
:102558000000eb000080fa00000006000000fa000e
:10256800e08280000000d100614060000080fb0034
:1025780000f0a7000000ea000000ea004f00de00bb
:10258800004078000080fa00000006000000fa0011
:10259800e08280004800de00614060000080fb00af
:1025a80000f0a7000000ea000000ea004f00de008b
:1025b800004078000080fa00000006000000fa00e1
:1025c80021e2a8002342a8000080fa0000000600cb
:1025d8000000fa0021e2a9002342a9000080fa00c5
:1025e800000006000000fa00101180000080fa00c8
:1025f800000006000000fa00a00320001013880065
:102608001000200020138800c0002000001388005c
:102618000080fa00000006000400fa00000f7800ad
:10262800110798000000000000138000620060009d
:102638000000e000fcff3a001e007800104078001f
:102648000080fb0040138800000000000113800098
:1026580000022000008060000000e000fbff3a005c
:1026680040138000804078001e00900001487800e8
:102678000080fa00000006001800fa00100f980009
:10268800210f9800320f98000000eb00000f78002f
:102698000000eb00100798000000eb00700798009e
:1026a8000000eb00000f9800100020006007980061
:1026b8001e0890000000e00005003a000000eb0052
:1026c8005007980070004700200798000400370062
:1026d800ee009000510798009e089000210798008e
:1026e8003e0890000000e00005003a000000eb0002
:1026f800400798006e004700300798000500370033
:10270800ee00900041079800be089000310798003d
:102718000000000000138000620060000000e0007c
:10272800fcff3a001d0037000013800062006000c3
:102738000000e00009003a002e00900010407800e8
:102748000080fb0040138800ae0090005e009000ff
:1027580000804000200798001e0fe8000113800049
:1027680000022000008060000000e0000b003a003a
:1027780040138000804078003e00900001487800b7
:10278800be0090004e009000008040003007980086
:102798001e0090000000e800100798002e08900026
:1027a8009e007800808f5000dfff3900100037004e
:1027b8000113800000022000008060000000e0009b
:1027c8000b003a0040138000804078003e009000e3
:1027d80001487800be0090004e0090000080400044
:1027e800300798001e0090000000e80010079800cd
:1027f8009e0090002e089000808f5000ecff39005a
:102808001e0078000080fa00000006000400fa00ac
:10281800204798000e80e8008e0078007eff0700b1
:102828001e4078000080fa00000006000600fa004a
:10283800000f780011079800220798002e019000d9
:102848009e0090001e0078008bff07000080fa00b1
:10285800000006000000fa0011138000004020006c
:10286800008060000000e00002003a000000eb0079
:1028780001003700100020000080fa000000060068
:102888000000fa00001380000080fa000000060033
:102898000000fa00022cef00042cef00062cef00d9
:1028a8000a2cef001a2cef001e2cef00402020000d
:1028b800006188004020200000628800602cef0042
:1028c80000002c00e3c1200011322400d2bc2a00f1
:1028d80082097800810978001061880000002c00c6
:1028e800e3c1200011322400d2bc2a0082097800fa
:1028f80081097800106288000000eb00e3c1200025
:1029080011322400d2bc2a0082097800810978009b
:102918001063880030002000e3c120001132240039
:10292800d2bc2a00820978008109780020618800d9
:1029380030002000e3c1200011322400d2bc2a005c
:102948008209780081097800206288003000200020
:10295800e3c1200011322400d2bc2a008209780089
:102968008109780020638800204d200030618800ac
:102978008070200030628800662cef0000962000ee
:10298800406188000096200040628800682cef00b3
:102998002003200050618800200320005062880036
:1029a8006a2cef00200320006061880020032000cb
:1029b800606288006c2cef00322cef00522cef0084
:1029c800722cef00342cef00542cef00742cef0025
:1029d8003a2cef005a2cef007a2cef003c2cef0039
:1029e8005c2cef007c2cef003e2cef005e2cef00ff
:1029f8007e2cef0000002800006088000080fa00ac
:102a0800000006000000fa000080fa00000006003e
:102a18000000fa00314080000020200000806000a3
:102a28000000e00002003200f6ff07000728a900b6
:102a38000080fa00000006000000fa000080fa009a
:102a4800000006000000fa0031408000002020004d
:102a5800008060000000e00002003200f6ff07007e
:102a68000bc8a9000080fa00000006000000fa0068
:102a78000080fa00000006000000fa0031408000e3
:102a880000202000008060000000e000020032000a
:102a9800f6ff07000be8a9000080fa000000060016
:102aa8000000fa000080fa00000006000000fa00aa
:102ab8003140800000202000008060000000e0001d
:102ac80002003200f6ff07000c08a9000080fa0097
:102ad800000006000000fa00003a80000080fa00ba
:102ae800000006000200fa00faff0700000f780055
:102af8001e007800240007000004e00002003200f5
:102b080000002800710007001e0078002a00070056
:102b18000004e00002003200000024006b000700ff
:102b28001e007800320007000004e00002003200b6
:102b380000202000650007001e0078003a0007000a
:102b48000004e00002003200000820005f000700d7
:102b58001e007800420007000004e0000200320076
:102b680000042000590007001e0078004a000700f2
:102b78000004e000020032000001200053000700ba
:102b88000080fa00000006000400fa001007980010
:102b98000040eb00004f78001e0090000000e000ad
:102ba80002003d0010c0b300004f78001e407800be
:102bb8000080fa00000006000400fa0010079800e0
:102bc8000040eb00004f78009e00900000002400b9
:102bd800008060000000e0000200320010c0b30076
:102be800004f78001e4078000080fa0000000600c0
:102bf8000400fa00100798000040eb00004f78002e
:102c08009e00900000202000008060000000e0008e
:102c18000200320010c0b300004f78001e40780058
:102c28000080fa00000006000400fa00100798006f
:102c38000040eb00004f78009e0090000008200044
:102c4800008060000000e0000200320010c0b30005
:102c5800004f78001e4078000080fa00000006004f
:102c68000400fa00100798000040eb00004f7800bd
:102c78009e00900000042000008060000000e0003a
:102c88000200320010c0b300004f78001e407800e8
:102c98000080fa00000006000400fa0010079800ff
:102ca8000040eb00004f78001e00900070006000ac
:102cb8000000e0000200320010c0b300004f7800ae
:102cc8001e4078000080fa00000006000200fa00aa
:102cd800000f78009e80ea00003a800000806000c3
:102ce800003a88000080fa00000006000000fa00a0
:102cf8004027ef000080fa00000006000200fa00fa
:102d08000000eb00000f780039fa070042d0bf003e
:102d18000040e80042f0b70042d0bf00e94f500041
:102d2800040036004270ef00008080000000a00020
:102d38000080880043d0bf000040e80043f0b7009f
:102d4800310421009140780030c6b30080cf500094
:102d5800040036004370ef00008080000010a000df
:102d68000080880044d0bf000040e80044f0b7006d
:102d780044d0bf00e74f4000040036004470ef0025
:102d8800008080000020a000008088000080800073
:102d9800000f78001e007800680060000000e00066
:102da800040032001e0078000030a100000f7800f7
:102db800380007001e007800700060000000e00086
:102dc800040032001e0078000040a100000f7800c7
:102dd800340007009e007800000220000080600098
:102de8000000e000040032001e0078000050a1003e
:102df800000f78002e0007001e00780061006000b8
:102e0800004078000004e000040032001e00780052
:102e18000000a100000f7800140007001e007800d1
:102e2800620060000000e000040032001e0078002c
:102e38000010a100000f78000f0007001e007800a6
:102e4800640060000000e000040032001e0078000a
:102e58000020a100000f78000b0007001e0078007a
:102e6800008088000080fa00000006000000fa00d8
:102e78000080fa00000006000000fa0087f9070049
:102e88000080fa00000006000000fa000080fa0046
:102e9800000006000000fa009df607000080fa0016
:102ea800000006000000fa000080fa00000006009a
:102eb8000000fa000080fa00000006000000fa0096
:102ec8000621ef00f0ab220060088800000228000d
:102ed80080088800708280000000e00002003a004c
:102ee800a07b21002500070000e8a90020e8a80031
:102ef800201a21008040eb00014878000080fa0089
:102f0800000006000200fa00000f78009e0078001a
:102f180061088800201a21008040eb0001487800f1
:102f28000080fa00000006000000fa006008800037
:102f38000080fa00000006000200fa00000f780086
:102f48009e00780031088800201a21008040eb009c
:102f5800014878000080fa00000006000000fa002e
:102f6800300880000080fa00000006000000fa0027
:102f7800fcf707000080fa00000006000200fa00d3
:102f8800000f780020e8a9009e0078007182880070
:102f980020e8a8000080fa00000006000000fa00ff
:102fa800201a21008040eb000148780020e8a800a2
:102fb80011e1a8000080fa00000006000000fa00f5
:102fc80011e1a9000080fa00000006000200fa00e2
:102fd800201a2100104f78001e4078000004e000fd
:102fe80003003200201a21008040eb0001487800dd
:102ff8001e4078000080fa00000006000000fa0079
:10300800301a2100104078000080fb000080fa0090
:10301800000006000000fa00301a21008040eb0092
:10302800014878000080fa00000006000000fa005d
:103038000021ef00d0da20001008880000002800e6
:1030480020088800001a21008040eb000148780021
:103058000080fa00000006000000fa00004080002e
:10306800680060000000e0000a003200101a210029
:10307800104078008040e800101a210001487800cc
:10308800001a210011c0b300014878000068a900a7
:103098001aff07000080fa00000006000200fa008c
:1030a800000f78009e00780011088800001a21009f
:1030b8008040eb00014878000080fa00000006001c
:1030c8000000fa00100880000080fa0000000600e6
:1030d8000200fa00000f78009e00780001088800be
:1030e800001a21008040eb00014878000080fa00b7
:1030f800000006000000fa00000880000080fa00c6
:10310800000006000000fa00001a21008040eb00d1
:103118000148780005e1a8000080fa0000000600d8
:103128000000fa0005e1a9000080fa00000006008e
:103138000200fa00001a2100104f78001e407800a3
:103148000004e00003003200001a21008040eb0078
:10315800014878001e4078000080fa000000060050
:103168000000fa00101a2100104078000080fb00cf
:103178000080fa00000006000000fa00101a210082
:103188008040eb00014878000080fa00000006004b
:020000040000fa
:1031980080110000200000008000000046100000a0
:1031a8000200000082000000ffff0000481000003d
:1031b8000200000080000000a011000002000000d2
:1031c800800000004a10000002000000800000009b
:1031d800541000006e000000800000004c10000039
:1031e8000200000080000000a211000002000000a0
:1031f800800000004e100000020000008000000067
:103208001c110000320000008000000000100000c7
:103218001c000000800000001c1000000e000000d0
:10322800820000000100d00007dc05000a00b000a1
:1032380004050000320000003410000008000000ff
:103248008000000050100000020000008200000012
:10325800010000004210000004000000800000008f
:103268004e110000320000008200000000aa550044
:103278000000000000000000000000000000000046
:103288000000000000000000000000000000000036
:103298000000000000000000000000000000000026
:1032a8000000000000000000000000000000000016
:1032b80052100000020000008200000010270000e9
:1032c8002a1000000a00000080000000c210000060
:1032d8005a000000800000003c10000006000000ba
:0832e80080000000000000005e
:020000040000fa
:1032f0000000fa00042eef00142eef00000820005a
:1033000020718800342eef00442eef00542eef0081
:10331000642eef0030b8210000708800e07f2000ac
:1033200080708800f0d72b00007188000014200006
:103330008071880000002f0000728800300020009b
:1033400080728800003c2000007388000c2eef0083
:103350001c2eef002c2eef003c2eef004c2eef0029
:103360005c2eef006c2eef000a2eef001a2eef00fd
:103370002a2eef003a2eef004a2eef005a2eef00d1
:103380006a2eef00062eef00162eef00262eef001d
:10339000362eef00462eef00562eef00662eef0081
:1033a0003001200070708800e0102000f07088006c
:1033b000700020007071880000002f00707288007b
:1033c000113a8000f00b20000081600060042000b2
:1033d000710520002374200080497800814978001d
:1033e0008249780051348000f00f2c00008060008a
:1033f0000080a000503488002136800000f82f00a3
:10340000808060008003200001007000203688006a
:10341000103a8000000178000260a00060042000e3
:1034200071052000237420008049780081497800cc
:10343000824978000080fa00000006000000fa00cf
:1034400043c7bf008080fb00800f20000081600028
:1034500080072000a10920003374200080497800f3
:103460008149780082497800103a80004c00de00e3
:10347000e7406000103a80004800de0067406000ce
:1034800080cf50001300320042c7bf000081fb0014
:10349000600420007105200023742000804978001a
:1034a000814978008249780000000000103a8000cd
:1034b000610060000000e000fcff3a000000000036
:1034c000113a800000022000008060000000e0004f
:1034d000fbff320000102300203a88004827ef004d
:1034e0004e27ef0040022000303a88006027ef00ae
:1034f0006227ef006427ef006627ef006a27ef00de
:103500006c27ef003200200080072000a109200076
:10351000337420008049780081497800824978001e
:103520001200200060042000710520002374200098
:1035300080497800814978008249780000000000c5
:10354000103a8000610060000000e000fcff3a00db
:1035500000000000113a800000022000008060009e
:103560000000e000fbff32000080fa0000000600cf
:103570000000fa0001eca8000080fa00000006003c
:103580000400fa00000f7800110798001e00780070
:10359000e20f500007003200e30f50000800320035
:1035a000e10f50000a003a009e009000316188004f
:1035b000080037009e009000316288000500370047
:1035c0009e00900031638800000000000100370079
:1035d000000000000080fa00000006000000fa0071
:1035e00026000700e2ff07008000eb00100020002b
:1035f000e3ff07008000eb0020002000e0ff070051
:10360000bff60700048ea900c0fe070011738000fa
:1036100000202000008060000000e00004003a006c
:1036200034aea90010c0b3001cf0b7000200370090
:1036300034aea8001c70ef0089fe0700f3ff3700ce
:103640000200fa00000f780021028000200f200005
:10365000008060001e007000200288000080fa00d8
:10366000000006000000fa00c3e8a8000000000007
:10367000000000000080fa00000006000000fa00d0
:103680001bff07006dff070029000700dbfb070099
:103690007ffa0700080007007ffc070009fe07000b
:1036a00064fe0700efff070000022000e4ff0700b0
:1036b0000080fa00000006000000fa0040402800e8
:1036c000001988002223ef00400020002019880004
:1036d0002823ef002e23ef003023ef003223ef00ea
:1036e0002623ef00101980004200de007f406000ba
:1036f00048f0b7000080fa00000006000000fa0061
:103700000080fa00000006000000fa00014080007e
:1037100000002200008060000000e0000200320093
:10372000f6ff070001a8a9000080fa0000000600cb
:103730000000fa0001438000f0f82f0000806000d4
:103740000040a000004388003142800080ff2f002d
:10375000008060000000a00030428800214280000c
:10376000f0ff28000080600000c0a0002042880018
:1037700011428000f0ff28000080600000c0a0001f
:10378000104288000080fa00000006000000fa00e5
:103790002aff07000080fa00000006000000fa007f
:1037a000003a80000080fa00000006000000fa00e5
:1037b000cefc07000080fa00000006000000fa00be
:1037c0004cfd07000080fa0000000600000f7800a2
:1037d0009e00780031828800ffff37000000fa0069
:1037e000001821008007780080192100000188005e
:0837f0000080fa000000060051
:020000040000fa
:020000040001f9
:045fe000ceff0000f0
:020000040000fa
:020000040001f9
:045fe400ffff0000bb
:020000040000fa
:020000040001f9
:045fe8007fff000037
:020000040000fa
:020000040001f9
:045fec003dff000075
:020000040000fa
:020000040001f9
:045ff0007bff000033
:020000040000fa
:020000040001f9
:045ff400ffff0000ab
:00000001FF
